010103000000120220629GEM850101BJ3SECRETARIA DE CULTURA PLANTILLA EVENTUAL                                                                      10094                                                                                                                                                                                                                                                                                                                                                                                                                  
02TAVP800813HDFMZB07TAVP800813A2501184923TAMES                                             VAZQUEZ                                           PABLO                                             075302021080920210809202112311 01506710250000000939400000000000000000124140000000000000000031035000000409330000000000000000000000000000671030000004979000000000000000000000000000000587100000006710000000000000000001334700000000698202212                                                                                                                             
02AAXA630820HNEGXR04AAAR6308208S000659038AGHABEKYAN                                                                                          ARMEN                                             075542021080920210809202112311 01504959750000000694400000000000000000091760000000000000000022939000000302540000000000000000000000000000495980000003680100000000000000000000000000000434000000004960000000000000000000986500000000516202212                                                                                                                             
02MOGL781130MDFRNR00MOGL781130MW601549783MORELOS                                           GONZALEZ                                          LOURDES NATALIA                                   075302021080920210809202112311 01507293750000001021100000000000000000134930000000000000000033734000000444920000000000000000000000000000729380000005412000000000000000000000000000000638200000007294000000000000000001450700000000759202212                                                                                                                             
02LOXR780430HNEPXN01LORE7804302F900807762LOPEZ                                                                                               RENE                                              075542021080920210809202112311 01505251500000000735200000000000000000097150000000000000000024288000000320340000000000000000000000000000525150000003896600000000000000000000000000000459500000005252000000000000000001044500000000546202212                                                                                                                             
02ZABR750101HMCRRF04ZABR750101QY100779272ZARATE                                            BERNAL                                            RAFAEL                                            075542021080920210809202112311 01504959750000000694400000000000000000091760000000000000000022939000000302540000000000000000000000000000495980000003680100000000000000000000000000000434000000004960000000000000000000986500000000516202212                                                                                                                             
02OACE700221MMCCNL02OACE7002218M600297123OCAMPO                                            CONTRERAS                                         ELVIA HERLINDA                                    075542015070120180703201812150 01502629060000000000000000000000000000000000000000000000000012159000000160370000000000000000000000000000262910000001950800000000000000000000000000000230000000002629000000000000000000522900000000273202212                                                                                                                             
02HEFA881004HDFRRL00HEFA881004BU501529413HERNANDEZ                                         FERNANDEZ                                         ALAN BRAULIO                                      075542021080920210809202112311 01503495800000000489400000000000000000064670000000000000000016168000000213240000000000000000000000000000349580000002593900000000000000000000000000000305900000003496000000000000000000695300000000364202212                                                                                                                             
02OOKP690904MDFRRT00OOKP690904UW300466642OROPEZA                                           KERESEY                                           PATRICIA LORENA                                   075542021080920210809202112311 01503178000000000444900000000000000000058790000000000000000014698000000193860000000000000000000000000000317800000002358100000000000000000000000000000278100000003178000000000000000000632100000000331202212                                                                                                                             
02LOBL951201HMCPSS07LOBL95120193801590361LOPEZ                                             BASURTO                                           LUIS ENRIQUE                                      075542022050120220501202207151 01508169000000001143700000000000000000151130000000000000000037782000000498310000000000000000000000000000816900000006061400000000000000000000000000000714800000008169000000000000000001624800000000850202212                                                                                                                             
02HEMC841024HMCRRR04HEMC841024UN700704031HERNANDEZ                                         MARTINEZ                                          CARLOS                                            075542021080920210809202112311 01511670000000001633800000000000000000215900000000000000000053974000000711870000000000000000000000000001167000000008659100000000000000000000000000001021100000011670000000000000000002321200000001214202212                                                                                                                             
02RABM950410MMNBLR04RABM9504103I301609135RABADAN                                           BLANCAS                                           MARTHA LAURA                                      075302022031620220316202207151 01507293750000001021100000000000000000134930000000000000000033734000000444920000000000000000000000000000729380000005412000000000000000000000000000000638200000007294000000000000000001450700000000759202212                                                                                                                             
02OAVF880201HMCLLR01OAVF880201QJ301162513OLASCOAGA                                         VALLADARES                                        FERNANDO                                          075542021080920210809202112311 01503792750000000531000000000000000000070170000000000000000017541000000231360000000000000000000000000000379280000002814200000000000000000000000000000331900000003793000000000000000000754400000000394202212                                                                                                                             
02GUSL601229HDFRNS01GUSL601229R1600468723GUERRERO                                          SANDOVAL                                          LUIS ARTURO                                       075542021080920210809202112310 01503792750000000000000000000000000000000000000000000000000017541000000231360000000000000000000000000000379280000002814200000000000000000000000000000331900000003793000000000000000000754400000000394202212                                                                                                                             
02RAMV581028HDFMRC01RAMV5810283G900620213RAMIREZ                                           MORENO                                            VICENTE FRANCISCO                                 075542015070120180703201812151 01504725000000000661500000000000000000087410000000000000000021853000000288230000000000000000000000000000472500000003506000000000000000000000000000000413400000004725000000000000000000939800000000491202212                                                                                                                             
02BAPD610521HNERNW16BAPD610521SJ300286580BRYAN                                             PENNINGTON                                        DWIGHT LLOYD                                      075542021080920210809202112310 01504959750000000000000000000000000000000000000000000000000022939000000302540000000000000000000000000000495980000003680100000000000000000000000000000434000000004960000000000000000000986500000000516202212                                                                                                                             
02OEME731130HDFRNM05OEME7311301F001258908ORTEGA                                            MENDIZABAL                                        EMMANUEL DEMIAN                                   075542021080920210809202112311 01503792750000000531000000000000000000070170000000000000000017541000000231360000000000000000000000000000379280000002814200000000000000000000000000000331900000003793000000000000000000754400000000394202212                                                                                                                             
02MASF740517MDFTNB05MASF740517QR700621054MATAMOROS                                         SANCHEZ                                           FABIOLA PILAR                                     075542021080920210809202112311 01503501000000000490100000000000000000064770000000000000000016192000000213560000000000000000000000000000350100000002597700000000000000000000000000000306300000003501000000000000000000696300000000364202212                                                                                                                             
02GARB780801MMCRDL03GARB78080183200620976GARDUÑO                                           RODRIGUEZ                                         BLANCA ANGELICA                                   075542021080920210809202112311 01507293750000001021100000000000000000134930000000000000000033734000000444920000000000000000000000000000729380000005412000000000000000000000000000000638200000007294000000000000000001450700000000759202212                                                                                                                             
02VITE920813HMCLRD03VITE920813TBA01118703VILLALOBOS                                        TRUEBA                                            EDUARDO                                           075542021091620210916202112311 01503439800000000481600000000000000000063640000000000000000015909000000209830000000000000000000000000000343980000002552300000000000000000000000000000301000000003440000000000000000000684200000000358202212                                                                                                                             
02PAAN770603MMCCVR01PAAN7706034Q300589726PACHECO                                           AVILES                                            NORMA ANGELICA                                    075542015070120180703201812150 01502629060000000000000000000000000000000000000000000000000012159000000160370000000000000000000000000000262910000001950800000000000000000000000000000230000000002629000000000000000000522900000000273202212                                                                                                                             
02ZEEA821219HDFNSL06ZEEA8212195W300668977ZENDEJAS                                          ESTRADA                                           JOSE ALFREDO EMMANUEL                             075542021080920210809202112311 01504959750000000694400000000000000000091760000000000000000022939000000302540000000000000000000000000000495980000003680100000000000000000000000000000434000000004960000000000000000000986500000000516202212                                                                                                                             
02RALR940302MDFMPC04RALR940302JQ901242771RAMOS                                             LOPEZ                                             MARIA DEL ROCIO                                   075302022041820220418202207151 01503792750000000531000000000000000000070170000000000000000017541000000231360000000000000000000000000000379280000002814200000000000000000000000000000331900000003793000000000000000000754400000000394202212                                                                                                                             
02HESM751114HDFRLR05HESM751114B2900639791HERNANDEZ                                         SOLORZANO                                         MARIANO                                           075542021080920210809202112311 01504376250000000612700000000000000000080960000000000000000020240000000266950000000000000000000000000000437630000003247200000000000000000000000000000382900000004376000000000000000000870400000000455202212                                                                                                                             
02GODO770301HMCMZM01GODO770301MW300620986GOMEZ                                             DIAZ                                              OMAR                                              075542021080920210809202112311 01507585500000001062000000000000000000140330000000000000000035083000000462720000000000000000000000000000758550000005628400000000000000000000000000000663700000007586000000000000000001508800000000789202212                                                                                                                             
02CAGM890601HMCZDR06CAGM890601HS301577338CAZADO                                            GUADARRAMA                                        MARIO                                             075302021080920210809202207151 01506710250000000939400000000000000000124140000000000000000031035000000409330000000000000000000000000000671030000004979000000000000000000000000000000587100000006710000000000000000001334700000000698202212                                                                                                                             
02DOLE740915HDFMDD03DOLE74091558000597360DOMINGUEZ                                         LEDEZMA                                           EDGAR                                             075302022031620220316202207150 01511670000000000000000000000000000000000000000000000000000053974000000711870000000000000000000000000001167000000008659100000000000000000000000000001021100000011670000000000000000002321200000001214202212                                                                                                                             
02VAPD760105HDFZRN03VAPD7601058H800548159VAZQUEZ                                           PEREZ                                             DANIEL                                            075542021080920210809202112311 01507585500000001062000000000000000000140330000000000000000035083000000462720000000000000000000000000000758550000005628400000000000000000000000000000663700000007586000000000000000001508800000000789202212                                                                                                                             
02MOFE661108HMCRRR04MOFE661108IAA00620218MORALES                                           FERNANDEZ                                         ERNESTO                                           075542015070100010101000101011 01504025000000000563500000000000000000074460000000000000000018616000000245530000000000000000000000000000402500000002986600000000000000000000000000000352200000004025000000000000000000800600000000419202212                                                                                                                             
02SASD760321HDFNCV05SASD760321CU100713842SANCHEZ                                           SACRAMENTO                                        DAVID                                             075542021080920210809202112311 01509627750000001347900000000000000000178110000000000000000044528000000587290000000000000000000000000000962780000007143800000000000000000000000000000842400000009628000000000000000001915000000001001202212                                                                                                                             
02LAXS551019MNERXB05LAMS551019HP500286553LAURAIN                                                                                             SABINA JEANNE                                     075542021080920210809202112311 01504959750000000694400000000000000000091760000000000000000022939000000302540000000000000000000000000000495980000003680100000000000000000000000000000434000000004960000000000000000000986500000000516202212                                                                                                                             
02GAGP690905HDFLND08GAGP690905I2100704028GALINDO                                           GONZALEZ                                          PEDRO IGNACIO                                     075542021080920210809202112311 01502917500000000408500000000000000000053970000000000000000013493000000177970000000000000000000000000000291750000002164800000000000000000000000000000255300000002918000000000000000000580300000000303202212                                                                                                                             
02VEMA690329HMCLRR06VEMA6903299B100245353VELASCO                                           MORALES                                           ARMANDO                                           075542021080920210809202112310 01503178000000000000000000000000000000000000000000000000000014698000000193860000000000000000000000000000317800000002358100000000000000000000000000000278100000003178000000000000000000632100000000331202212                                                                                                                             
02MEGJ800613MMCNRN02MEGJ800613MB101614285MENDIOLA                                          GARCIA                                            JOANNA ELIZABETH                                  075302022051620220516202207151 01506710250000000939400000000000000000124140000000000000000031035000000409330000000000000000000000000000671030000004979000000000000000000000000000000587100000006710000000000000000001334700000000698202212                                                                                                                             
02AAFM751201HMCLBR09AAFM751201KK800620219ALVAREZ                                           FABELA                                            MARTIN LEONARDO                                   075542015070120180703201812151 01502629060000000368100000000000000000048640000000000000000012159000000160370000000000000000000000000000262910000001950800000000000000000000000000000230000000002629000000000000000000522900000000273202212                                                                                                                             
02TAXN680711MNESXN06TANU6807115Y400554512TSHAVRSHYAN                                                                                         NUNE                                              075542021080920210809202112311 01507585500000001062000000000000000000140330000000000000000035083000000462720000000000000000000000000000758550000005628400000000000000000000000000000663700000007586000000000000000001508800000000789202212                                                                                                                             
02GOMG771212MDFNCD05GOMG771212BT100704030GONZALEZ                                          MUCIÑO                                            MARIA GUADALUPE                                   075542021080920210809202112311 01507293750000001021100000000000000000134930000000000000000033734000000444920000000000000000000000000000729380000005412000000000000000000000000000000638200000007294000000000000000001450700000000759202212                                                                                                                             
02LOME880511HMCPND02LOME88051178A00781520LOPEZ                                             MONTENEGRO                                        JOSE EDUARDO                                      075542021080920210809202112311 01505835000000000816900000000000000000107950000000000000000026987000000355940000000000000000000000000000583500000004329600000000000000000000000000000510600000005835000000000000000001160600000000607202212                                                                                                                             
02FULE740604MMCRRS04FULE7406049MA00673663FUERTE                                            LARA                                              ESTEFANIA MARIA DEL CARMEN                        075542021080920210809202112311 01503792750000000531000000000000000000070170000000000000000017541000000231360000000000000000000000000000379280000002814200000000000000000000000000000331900000003793000000000000000000754400000000394202212                                                                                                                             
02AEJD830729HNENCR06AEJD830729NCA00620903ANDERSON                                          JACAMO                                            DARYL RODWELL                                     075542021080920210809202112311 01504959750000000694400000000000000000091760000000000000000022939000000302540000000000000000000000000000495980000003680100000000000000000000000000000434000000004960000000000000000000986500000000516202212                                                                                                                             
02MEGA910618HMCNSL07MEGA91061855701612109MENDOZA                                           GASCA                                             ALEJANDRO                                         075302022041820220418202207151 01502629060000000368100000000000000000048640000000000000000012159000000160370000000000000000000000000000262910000001950800000000000000000000000000000230000000002629000000000000000000522900000000273202212                                                                                                                             
02ZAXM770207HNENXR08ZAMA7702072V701270949ZANATTA                                                                                             MAURO                                             075302021080920210809202112311 01503813600000000533900000000000000000070550000000000000000017638000000232630000000000000000000000000000381360000002829700000000000000000000000000000333700000003814000000000000000000758500000000397202212                                                                                                                             
02GUCM930105MMCRLR02GUCM930105TF501591133GUERRERO                                          COLIN                                             MARGARITA                                         075302021101620211016202112311 01502629060000000368100000000000000000048640000000000000000012159000000160370000000000000000000000000000262910000001950800000000000000000000000000000230000000002629000000000000000000522900000000273202212                                                                                                                             
02GOGL670216HDFNRP03GOGL670216F8500502594GONZALEZ                                          GARCIA                                            LEOPOLDO                                          075302021080920210809202112311 01505402600000000756400000000000000000099950000000000000000024987000000329560000000000000000000000000000540260000004008700000000000000000000000000000472700000005403000000000000000001074600000000562202212                                                                                                                             
02BEMG950227HMCRCN07BEMG950227GM301549769BERMUDEZ                                          MUCIÑO                                            GONZALO                                           075302022060120220601202207151 01502629060000000368100000000000000000048640000000000000000012159000000160370000000000000000000000000000262910000001950800000000000000000000000000000230000000002629000000000000000000522900000000273202212                                                                                                                             
02DOML770113MMNMRR03DOML770113AV901549777DOMINGUEZ                                         MARES                                             LORENA GABRIELA                                   075302021080920210809202112311 01503178000000000444900000000000000000058790000000000000000014698000000193860000000000000000000000000000317800000002358100000000000000000000000000000278100000003178000000000000000000632100000000331202212                                                                                                                             
02PEJK880603MMCRMR07PEJK88060364801549785PEREZ                                             JAIMES                                            KAREN GABRIELA                                    075302021080920210809202112311 01504376250000000612700000000000000000080960000000000000000020240000000266950000000000000000000000000000437630000003247200000000000000000000000000000382900000004376000000000000000000870400000000455202212                                                                                                                             
02ROIM790728HMCSTR08ROIM7907288C400807178ROSALES                                           ITURBIDE                                          MARCO ANTONIO                                     075542021080920210809202112311 01503704400000000518600000000000000000068530000000000000000017133000000225970000000000000000000000000000370440000002748700000000000000000000000000000324100000003704000000000000000000736800000000385202212                                                                                                                             
02SASM681120MMCNTG08SASM681120B9401561682SANCHEZ                                           SOTELO                                            MA. MAGDALENA                                     075302021080920210809202112311 01503792750000000531000000000000000000070170000000000000000017541000000231360000000000000000000000000000379280000002814200000000000000000000000000000331900000003793000000000000000000754400000000394202212                                                                                                                             
02PIVJ841127HDFCZN09PIVJ841127U8401561679PICHARDO                                          VAZQUEZ                                           JEAN ANGELUS                                      075302021080920210809202112311 01504376250000000612700000000000000000080960000000000000000020240000000266950000000000000000000000000000437630000003247200000000000000000000000000000382900000004376000000000000000000870400000000455202212                                                                                                                             
02VECA760304HMCLRD01VECA760304HD701157635VELAZQUEZ                                         CORRAL                                            ADRIAN                                            075542021080920210809202112311 01503501000000000490100000000000000000064770000000000000000016192000000213560000000000000000000000000000350100000002597700000000000000000000000000000306300000003501000000000000000000696300000000364202212                                                                                                                             
02AOVV820907HDFLVL00AOVV82090721701563867ALFONSECA                                         VIVAR                                             VLADIMIR                                          075302021080920210809202112311 01511086500000001552100000000000000000205100000000000000000051275000000676280000000000000000000000000001108650000008226200000000000000000000000000000970100000011087000000000000000002205100000001153202212                                                                                                                             
02DIMR820403HOCZNC08DIMR820403P5301315832DIAZ                                              MENDEZ                                            RICARDO FAUSTINO                                  075302021080920210809202112311 01511670000000001633800000000000000000215900000000000000000053974000000711870000000000000000000000000001167000000008659100000000000000000000000000001021100000011670000000000000000002321200000001214202212                                                                                                                             
02GOOA871010HDFNRL05GOOA87101028001282783GONZALEZ                                          ORTIZ                                             ALAN                                              075302021080920210809202112311 01502629060000000368100000000000000000048640000000000000000012159000000160370000000000000000000000000000262910000001950800000000000000000000000000000230000000002629000000000000000000522900000000273202212                                                                                                                             
02GOLJ570407HSPNPN05GOLJ570407K8801609012GONZALEZ                                          LOPEZ                                             JUAN                                              075302022031620220316202207151 01507293750000001021100000000000000000134930000000000000000033734000000444920000000000000000000000000000729380000005412000000000000000000000000000000638200000007294000000000000000001450700000000759202212                                                                                                                             
02FEGJ881001HMCLRR01FEGJ881001RS501017660FELIX                                             GARCIA                                            JORGE LUIS                                        075542021080920210809202112311 01504762800000000666800000000000000000088110000000000000000022028000000290530000000000000000000000000000476280000003534000000000000000000000000000000416700000004763000000000000000000947300000000495202212                                                                                                                             
02CUAJ900619HMCRGN04CUAJ900619FU701152577CRUZ                                              AGUILAR                                           JUAN JOSE                                         075542021080920210809202112311 01502917500000000408500000000000000000053970000000000000000013493000000177970000000000000000000000000000291750000002164800000000000000000000000000000255300000002918000000000000000000580300000000303202212                                                                                                                             
02LONG530209HMCPVL04LONG530209A4301014276LOPEZ                                             NAVA                                              GUILLERMO ALEJO                                   075542021080920210809202112311 01503792750000000531000000000000000000070170000000000000000017541000000231360000000000000000000000000000379280000002814200000000000000000000000000000331900000003793000000000000000000754400000000394202212                                                                                                                             
02GORE911230HMCNVD02GORE911230MN801058189GONZALEZ                                          RIVERA                                            EDUARDO                                           075302021080920210809202112311 01502646000000000370400000000000000000048950000000000000000012238000000161410000000000000000000000000000264600000001963300000000000000000000000000000231500000002646000000000000000000526300000000275202212                                                                                                                             
02LOVR840807HMCPSB09LOVR8408076P801017666LOPEZ                                             VASQUEZ                                           JOSE ROBERTO                                      075542021080920210809202112311 01505835000000000816900000000000000000107950000000000000000026987000000355940000000000000000000000000000583500000004329600000000000000000000000000000510600000005835000000000000000001160600000000607202212                                                                                                                             
02HUAK810530MGTRGR01HUAK810530QG300848594HURTADO                                           AGUADO                                            KARIMA ALEXANDRA                                  075542021080920210809202112311 01506038200000000845300000000000000000111710000000000000000027927000000368330000000000000000000000000000603820000004480300000000000000000000000000000528300000006038000000000000000001201000000000628202212                                                                                                                             
02EACG860822HMCSSR03EACG86082243500891274ESTRADA                                           CASTAÑEDA                                         GERARDO                                           075542015070120180703201812151 01502629060000000368100000000000000000048640000000000000000012159000000160370000000000000000000000000000262910000001950800000000000000000000000000000230000000002629000000000000000000522900000000273202212                                                                                                                             
02AAPP680212HDFLRR08AAPP680212DK500743484ALVAREZ                                           PEREZ                                             PERCIVAL                                          075302021080920210809202112311 01504824300000000675400000000000000000089250000000000000000022312000000294280000000000000000000000000000482430000003579600000000000000000000000000000422100000004824000000000000000000959600000000502202212                                                                                                                             
02DORG920501HMCTVD08DORG920501EE601538303DOTOR                                             RUVALCABA                                         JOSE GUADALUPE                                    075302021080920210809202112311 01502629060000000368100000000000000000048640000000000000000012159000000160370000000000000000000000000000262910000001950800000000000000000000000000000230000000002629000000000000000000522900000000273202212                                                                                                                             
02RIRA860728MBCVYR04RIRA860728QK701561680RIVERA                                            REYES                                             ARMIDA                                            075302021080920210809202112311 01507293750000001021100000000000000000134930000000000000000033734000000444920000000000000000000000000000729380000005412000000000000000000000000000000638200000007294000000000000000001450700000000759202212                                                                                                                             
02RUCZ920324MDFZHR07RUCZ920324MJ101561681RUIZ                                              CHINO                                             ZAIRA BEYID                                       075302021080920210809202112311 01504767000000000667400000000000000000088190000000000000000022047000000290790000000000000000000000000000476700000003537100000000000000000000000000000417100000004767000000000000000000948200000000496202212                                                                                                                             
02GUNM820303HMCTJS04GUNM82030366901593736GUTIERREZ                                         NAJERA                                            MISRAIM IGNACIO                                   075302022010320220103202204151 01504449200000000622900000000000000000082310000000000000000020578000000271400000000000000000000000000000444920000003301300000000000000000000000000000389300000004449000000000000000000884900000000463202212                                                                                                                             
02CATP980824MMCSNL08CATP980824QD701609128CASTILLO                                          TENORIO                                           MARIA PAULINA                                     075302022031620220316202207151 01507293750000001021100000000000000000134930000000000000000033734000000444920000000000000000000000000000729380000005412000000000000000000000000000000638200000007294000000000000000001450700000000759202212                                                                                                                             
02PEAS890514HMCRLL00PEAS890514TU101283006PEREZ                                             ALMAZAN                                           SALVADOR VENANCIO                                 075302021080920210809202112311 01503178000000000444900000000000000000058790000000000000000014698000000193860000000000000000000000000000317800000002358100000000000000000000000000000278100000003178000000000000000000632100000000331202212                                                                                                                             
02CAZP740516MMCMMT09CAZP740516GY601609141CAMACHO                                           ZAMORA                                            PATRICIA                                          075302022031620220316202207151 01507293750000001021100000000000000000134930000000000000000033734000000444920000000000000000000000000000729380000005412000000000000000000000000000000638200000007294000000000000000001450700000000759202212                                                                                                                             
02TEVA001204HMCNZRA5TEVA001204NR701592730TENORIO                                           VAZQUEZ                                           ARTURO FEDERICO                                   075302022031620220316202207151 01507293750000001021100000000000000000134930000000000000000033734000000444920000000000000000000000000000729380000005412000000000000000000000000000000638200000007294000000000000000001450700000000759202212                                                                                                                             
02GOXC690426MNELXM06GOCA6904269R501570220GOILA                                                                                               CAMELIA CRENGUTA                                  075302021080920210809202112311 01504959750000000694400000000000000000091760000000000000000022939000000302540000000000000000000000000000495980000003680100000000000000000000000000000434000000004960000000000000000000986500000000516202212                                                                                                                             
02SAMS601008MMCNRR00SAMS60100894900167783SANCHEZ                                           MERCADO                                           SARA GRISELDA                                     075302021080920210809202112310 01503792750000000000000000000000000000000000000000000000000017541000000231360000000000000000000000000000379280000002814200000000000000000000000000000331900000003793000000000000000000754400000000394202212                                                                                                                             
02ROAR931101HMCDBS06ROAR9311019Z101283032RODRIGUEZ                                         ABASCAL                                           RUSSELL                                           075302021080920210809202112311 01506673800000000934300000000000000000123470000000000000000030866000000407100000000000000000000000000000667380000004952000000000000000000000000000000584000000006674000000000000000001327400000000694202212                                                                                                                             
02GUTE720901HMCTVD04GUTE720901Q4000851411GUTIERREZ                                         TAVERA                                            EDGAR ARTURO                                      075542021080920210809202112311 01504376250000000612700000000000000000080960000000000000000020240000000266950000000000000000000000000000437630000003247200000000000000000000000000000382900000004376000000000000000000870400000000455202212                                                                                                                             
02CARC930430HDFRVR08CARC930430RA501285500CARPIZO                                           RIVERO                                            CARLOS ANDRES                                     075302021080920210809202112311 01505835000000000816900000000000000000107950000000000000000026987000000355940000000000000000000000000000583500000004329600000000000000000000000000000510600000005835000000000000000001160600000000607202212                                                                                                                             
02FOMP940905MMCLJL05FOMP94090534901502384FLORES                                            MEJIA                                             MARIA DEL PILAR                                   075302021080920210809202112311 01504449200000000622900000000000000000082310000000000000000020578000000271400000000000000000000000000000444920000003301300000000000000000000000000000389300000004449000000000000000000884900000000463202212                                                                                                                             
02AAEA930617MMCLSN00AAEA9306171I901584712ALCANTARA                                         ESCOBAR                                           ANA KAREN                                         075302021070120210701202112311 01511670000000001633800000000000000000215900000000000000000053974000000711870000000000000000000000000001167000000008659100000000000000000000000000001021100000011670000000000000000002321200000001214202212                                                                                                                             
02CUOI840408HDFRLS09CUOI8404084W000983683CRUZ                                              OLALDE                                            ISRAEL                                            075302021080920210809202112311 01502629060000000368100000000000000000048640000000000000000012159000000160370000000000000000000000000000262910000001950800000000000000000000000000000230000000002629000000000000000000522900000000273202212                                                                                                                             
02ROBV820728HMCSRC03ROBV820728TLA01561675DE LA ROSA                                        BARRETO                                           VICTOR HUGO                                       075302021080920210809202112311 01504131400000000578400000000000000000076430000000000000000019108000000252020000000000000000000000000000413140000003065500000000000000000000000000000361500000004131000000000000000000821700000000430202212                                                                                                                             
02BAQJ900220HMCLXN05BAQJ900220QZ601561674BALCAZAR                                          QUIÑONES                                          JUAN ANTONIO                                      075302021080920210809202207151 01503923000000000549200000000000000000072580000000000000000018144000000239300000000000000000000000000000392300000002910900000000000000000000000000000343300000003923000000000000000000780300000000408202212                                                                                                                             
02COLD740608HDFLPV08COLD7406087E500479462COLIN                                             LOPEZ                                             DAVID ALEJANDRO                                   075302021080920210809202112311 01506038200000000845300000000000000000111710000000000000000027927000000368330000000000000000000000000000603820000004480300000000000000000000000000000528300000006038000000000000000001201000000000628202212                                                                                                                             
090103000000120220629000005458820000000000000000721344000000000000000195436000002577649000000000000000000000000004225669000031354340000000000000000000000000003697400000042257200000000000000008404810000004394900000014837080                                                                                                                                                                                                                                                                                                                                        
