02DEML500512HMCLNS02DEML500512MN101559830DELGADO                                           MENDOZA                                           JOSE LUIS                                         075302022010320220103202206151 01502629060000000368100000000000000000048640000000000000000012159000000160370000000000000000000000000000262910000001950800000000000000000000000000000230000000002629000000000000000000522900000000273202211                                                                                                                             
02AEGJ660815HMCNNN08AEGJ660815AG101162834ANCELMO                                           GONZALEZ                                          JUAN                                              075542022010320220103202206151 01502629060000000368100000000000000000048640000000000000000012159000000160370000000000000000000000000000262910000001950800000000000000000000000000000230000000002629000000000000000000522900000000273202211                                                                                                                             
02VELF711205HMCLRR02VELF711205Q8500513287VELASCO                                           LARA                                              FRANCISCO FIDEL                                   075302022010320220103202206150 01502629060000000000000000000000000000000000000000000000000012159000000160370000000000000000000000000000262910000001950800000000000000000000000000000230000000002629000000000000000000522900000000273202211                                                                                                                             
02DORG920501HMCTVD08DORG920501EE601538303DOTOR                                             RUVALCABA                                         JOSE GUADALUPE                                    075302021080920210809202112311 01502629060000000368100000000000000000048640000000000000000012159000000160370000000000000000000000000000262910000001950800000000000000000000000000000230000000002629000000000000000000522900000000273202211                                                                                                                             
02SAPI890814HDFNSV05SAPI89081448601184147SANCHEZ                                           POSADA                                            IVAN OSWALDO                                      075302022010320220103202206151 01502629060000000368100000000000000000048640000000000000000012159000000160370000000000000000000000000000262910000001950800000000000000000000000000000230000000002629000000000000000000522900000000273202211                                                                                                                             
02MIOL970321HMCSRS08MIOL97032165401570565MISULINICH                                        OREA                                              LUIS ERNESTO                                      075302022010320220103202206151 01507353000000001029400000000000000000136030000000000000000034008000000448530000000000000000000000000000735300000005455900000000000000000000000000000643400000007353000000000000000001462500000000765202211                                                                                                                             
02GAMN610107MMCRRR06GAMN610107BKA00142118GARCIA                                            MARTINEZ                                          MARIA NARDA                                       075302022010320220103202206150 01502629060000000000000000000000000000000000000000000000000012159000000160370000000000000000000000000000262910000001950800000000000000000000000000000230000000002629000000000000000000522900000000273202211                                                                                                                             
02TEVA001204HMCNZRA5TEVA001204NR701592730TENORIO                                           VAZQUEZ                                           ARTURO FEDERICO                                   075302022031620220316202207151 01507293750000001021100000000000000000134930000000000000000033734000000444920000000000000000000000000000729380000005412000000000000000000000000000000638200000007294000000000000000001450700000000759202211                                                                                                                             
02CAGM890601HMCZDR06CAGM890601HS301577338CAZADO                                            GUADARRAMA                                        MARIO                                             075302021080920210809202207151 01506710250000000939400000000000000000124140000000000000000031035000000409330000000000000000000000000000671030000004979000000000000000000000000000000587100000006710000000000000000001334700000000698202211                                                                                                                             
02BAEJ921210HDFRSL01BAEJ9212101F901584647BARRERA                                           ESTRADA                                           JULIO CESAR                                       075302022010320220103202206151 01502629060000000368100000000000000000048640000000000000000012159000000160370000000000000000000000000000262910000001950800000000000000000000000000000230000000002629000000000000000000522900000000273202211                                                                                                                             
02AEPM970326HDFLRR04AEPM970326GD001546739ALMERAYA                                          PARRAL                                            MARIO                                             075302022010320220103202206151 01503078000000000430900000000000000000056940000000000000000014236000000187760000000000000000000000000000307800000002283900000000000000000000000000000269300000003078000000000000000000612200000000320202211                                                                                                                             
02AERA010313MMCCCNA2AERA0103139P801584631ACEVEDO                                           RECILLAS                                          ANEL JAQUELINE                                    075302022010320220103202206151 01502907000000000407000000000000000000053780000000000000000013445000000177330000000000000000000000000000290700000002157000000000000000000000000000000254400000002907000000000000000000578200000000302202211                                                                                                                             
02MOLM561121HMCRPR03MOLM561121GEA01161873MORALES                                           LOPEZ                                             MAURO                                             075542022010320220103202206151 01502629060000000368100000000000000000048640000000000000000012159000000160370000000000000000000000000000262910000001950800000000000000000000000000000230000000002629000000000000000000522900000000273202211                                                                                                                             
02FEGJ881001HMCLRR01FEGJ881001RS501017660FELIX                                             GARCIA                                            JORGE LUIS                                        075542021080920210809202112311 01504762800000000666800000000000000000088110000000000000000022028000000290530000000000000000000000000000476280000003534000000000000000000000000000000416700000004763000000000000000000947300000000495202211                                                                                                                             
02HERM800513MDFRMR05HERM800513G4801161877HERRERA                                           RAMIREZ                                           MARCELA ALEJANDRA                                 075542022010320220103202206151 01502629060000000368100000000000000000048640000000000000000012159000000160370000000000000000000000000000262910000001950800000000000000000000000000000230000000002629000000000000000000522900000000273202211                                                                                                                             
02SAGL941208MDFNRZ01SAGL941208NN401584710SANDOVAL                                          GRANA                                             LUZ ANGELICA                                      075302022010320220103202206151 01502629060000000368100000000000000000048640000000000000000012159000000160370000000000000000000000000000262910000001950800000000000000000000000000000230000000002629000000000000000000522900000000273202211                                                                                                                             
02ZAXM770207HNENXR08ZAMA7702072V701270949ZANATTA                                                                                             MAURO                                             075302021080920210809202112311 01503813600000000533900000000000000000070550000000000000000017638000000232630000000000000000000000000000381360000002829700000000000000000000000000000333700000003814000000000000000000758500000000397202211                                                                                                                             
02MEGJ800613MMCNRN02MEGJ800613MB101614285MENDIOLA                                          GARCIA                                            JOANNA ELIZABETH                                  075302022051620220516202207151 01506710250000000939400000000000000000124140000000000000000031035000000409330000000000000000000000000000671030000004979000000000000000000000000000000587100000006710000000000000000001334700000000698202211                                                                                                                             
02PEEA800621HMCDSL07PEEA8006213I801224005PEDROZA                                           ESTRADA                                           ALEJANDRO                                         075302022010320220103202206151 01502629060000000368100000000000000000048640000000000000000012159000000160370000000000000000000000000000262910000001950800000000000000000000000000000230000000002629000000000000000000522900000000273202211                                                                                                                             
02RARA790802MDFNDN04RARA790802UXA01163214RANGEL                                            RODRIGUEZ                                         ANGELICA PATRICIA                                 075542022010320220103202206151 01502629060000000368100000000000000000048640000000000000000012159000000160370000000000000000000000000000262910000001950800000000000000000000000000000230000000002629000000000000000000522900000000273202211                                                                                                                             
02HEBM580715MVZRLR00HEBM58071532501593766HERNANDEZ                                         BELTRAN                                           MARTHA                                            075302022010320220103202206151 01502629060000000368100000000000000000048640000000000000000012159000000160370000000000000000000000000000262910000001950800000000000000000000000000000230000000002629000000000000000000522900000000273202211                                                                                                                             
02GUMA720726MMCTNN05GUMA720726DS301573744GUTIERREZ                                         MONDRAGON                                         ANA LILIA                                         075302022010320220103202206151 01509490500000001328700000000000000000175570000000000000000043894000000578920000000000000000000000000000949050000007042000000000000000000000000000000830400000009491000000000000000001887700000000987202211                                                                                                                             
02MESM990901MMCNHR02MESM990901R5001593789MENDOZA                                           SHATE                                             MARTHA SOFIA                                      075302022010320220103202206151 01504275000000000598500000000000000000079090000000000000000019772000000260780000000000000000000000000000427500000003172100000000000000000000000000000374100000004275000000000000000000850300000000445202211                                                                                                                             
02HEFA881004HDFRRL00HEFA881004BU501529413HERNANDEZ                                         FERNANDEZ                                         ALAN BRAULIO                                      075542021080920210809202112311 01503495800000000489400000000000000000064670000000000000000016168000000213240000000000000000000000000000349580000002593900000000000000000000000000000305900000003496000000000000000000695300000000364202211                                                                                                                             
02BAQJ900220HMCLXN05BAQJ900220QZ601561674BALCAZAR                                          QUIÑONES                                          JUAN ANTONIO                                      075302021080920210809202207151 01503923000000000549200000000000000000072580000000000000000018144000000239300000000000000000000000000000392300000002910900000000000000000000000000000343300000003923000000000000000000780300000000408202211                                                                                                                             
02SIGA991117MMCLLN07SIGA99111765401591135SILVERIO                                          GALICIA                                           ANNIE JANET                                       075302022010320220103202206151 01504275000000000598500000000000000000079090000000000000000019772000000260780000000000000000000000000000427500000003172100000000000000000000000000000374100000004275000000000000000000850300000000445202211                                                                                                                             
02MEGA910618HMCNSL07MEGA91061855701612109MENDOZA                                           GASCA                                             ALEJANDRO                                         075302022041820220418202207151 01502629060000000368100000000000000000048640000000000000000012159000000160370000000000000000000000000000262910000001950800000000000000000000000000000230000000002629000000000000000000522900000000273202211                                                                                                                             
02GOOA871010HDFNRL05GOOA87101028001282783GONZALEZ                                          ORTIZ                                             ALAN                                              075302021080920210809202112311 01502629060000000368100000000000000000048640000000000000000012159000000160370000000000000000000000000000262910000001950800000000000000000000000000000230000000002629000000000000000000522900000000273202211                                                                                                                             
02AOPA990629MDFBSN02AOPA990629ST101535980ABONCE                                            PASILLAS                                          ANDREA FERNANDA                                   075302022010320220103202206151 01502629060000000368100000000000000000048640000000000000000012159000000160370000000000000000000000000000262910000001950800000000000000000000000000000230000000002629000000000000000000522900000000273202211                                                                                                                             
02RIRA860728MBCVYR04RIRA860728QK701561680RIVERA                                            REYES                                             ARMIDA                                            075302021080920210809202112311 01507293750000001021100000000000000000134930000000000000000033734000000444920000000000000000000000000000729380000005412000000000000000000000000000000638200000007294000000000000000001450700000000759202211                                                                                                                             
02GORE911230HMCNVD02GORE911230MN801058189GONZALEZ                                          RIVERA                                            EDUARDO                                           075302021080920210809202112311 01502646000000000370400000000000000000048950000000000000000012238000000161410000000000000000000000000000264600000001963300000000000000000000000000000231500000002646000000000000000000526300000000275202211                                                                                                                             
02VISR700513HDFLCD13VISR700513CY500910646VILLEGAS                                          SECUNDINO                                         RODOLFO                                           075542022010320220103202206151 01502629060000000368100000000000000000048640000000000000000012159000000160370000000000000000000000000000262910000001950800000000000000000000000000000230000000002629000000000000000000522900000000273202211                                                                                                                             
02GIRL940618MDFJNR09GIRL940618MR401244206GIJON                                             RANGEL                                            LOURDES RAQUEL                                    075302022010320220103202206151 01502629060000000368100000000000000000048640000000000000000012159000000160370000000000000000000000000000262910000001950800000000000000000000000000000230000000002629000000000000000000522900000000273202211                                                                                                                             
02RALR940302MDFMPC04RALR940302JQ901242771RAMOS                                             LOPEZ                                             MARIA DEL ROCIO                                   075302022041820220418202207151 01503792750000000531000000000000000000070170000000000000000017541000000231360000000000000000000000000000379280000002814200000000000000000000000000000331900000003793000000000000000000754400000000394202211                                                                                                                             
02FOHC721204MMCLRL07FOHC72120415601161859FLORES                                            HERNANDEZ                                         CLAUDIA                                           075542022010320220103202206151 01502629060000000368100000000000000000048640000000000000000012159000000160370000000000000000000000000000262910000001950800000000000000000000000000000230000000002629000000000000000000522900000000273202211                                                                                                                             
02MAGL980722MMCDNR05MAGL9807227P801535988MADRIGAL                                          GONZALEZ                                          LAURA RAQUEL                                      075302022010320220103202206151 01502629060000000368100000000000000000048640000000000000000012159000000160370000000000000000000000000000262910000001950800000000000000000000000000000230000000002629000000000000000000522900000000273202211                                                                                                                             
02SAJD980509MMCLMN09SAJD9805092Q401584706SALAZAR                                           JAIMES                                            DANIELA DESSIRE                                   075302022010320220103202206151 01503163500000000442900000000000000000058520000000000000000014631000000192970000000000000000000000000000316350000002347300000000000000000000000000000276800000003164000000000000000000629200000000329202211                                                                                                                             
02RAMV581028HDFMRC01RAMV5810283G900620213RAMIREZ                                           MORENO                                            VICENTE FRANCISCO                                 075542015070120180703201812151 01504725000000000661500000000000000000087410000000000000000021853000000288230000000000000000000000000000472500000003506000000000000000000000000000000413400000004725000000000000000000939800000000491202211                                                                                                                             
02AAFM751201HMCLBR09AAFM751201KK800620219ALVAREZ                                           FABELA                                            MARTIN LEONARDO                                   075542015070120180703201812151 01502629060000000368100000000000000000048640000000000000000012159000000160370000000000000000000000000000262910000001950800000000000000000000000000000230000000002629000000000000000000522900000000273202211                                                                                                                             
02GODO770301HMCMZM01GODO770301MW300620986GOMEZ                                             DIAZ                                              OMAR                                              075542021080920210809202112311 01507585500000001062000000000000000000140330000000000000000035083000000462720000000000000000000000000000758550000005628400000000000000000000000000000663700000007586000000000000000001508800000000789202211                                                                                                                             
02FULE740604MMCRRS04FULE7406049MA00673663FUERTE                                            LARA                                              ESTEFANIA MARIA DEL CARMEN                        075542021080920210809202112311 01503792750000000531000000000000000000070170000000000000000017541000000231360000000000000000000000000000379280000002814200000000000000000000000000000331900000003793000000000000000000754400000000394202211                                                                                                                             
02MERA920730HMCJMG06MERA920730PY201240632MEJIA                                             RAMIREZ                                           AGUSTIN                                           075302022010320220103202206151 01502629060000000368100000000000000000048640000000000000000012159000000160370000000000000000000000000000262910000001950800000000000000000000000000000230000000002629000000000000000000522900000000273202211                                                                                                                             
02GOGL670216HDFNRP03GOGL670216F8500502594GONZALEZ                                          GARCIA                                            LEOPOLDO                                          075302021080920210809202112311 01505402600000000756400000000000000000099950000000000000000024987000000329560000000000000000000000000000540260000004008700000000000000000000000000000472700000005403000000000000000001074600000000562202211                                                                                                                             
02RUIA840326HDFZLM03RUIA840326L1A01162903RUIZ                                              ILLESCAS                                          AMIN ABDEL                                        075542022010320220103202206151 01502629060000000368100000000000000000048640000000000000000012159000000160370000000000000000000000000000262910000001950800000000000000000000000000000230000000002629000000000000000000522900000000273202211                                                                                                                             
02CUME500805HMCRRM02CUME500805KX400232890CRUZ                                              MARCOS                                            EMIGDIO                                           075542022010320220103202206150 01502629060000000000000000000000000000000000000000000000000012159000000160370000000000000000000000000000262910000001950800000000000000000000000000000230000000002629000000000000000000522900000000273202211                                                                                                                             
02PIVJ841127HDFCZN09PIVJ841127U8401561679PICHARDO                                          VAZQUEZ                                           JEAN ANGELUS                                      075302021080920210809202112311 01504376250000000612700000000000000000080960000000000000000020240000000266950000000000000000000000000000437630000003247200000000000000000000000000000382900000004376000000000000000000870400000000455202211                                                                                                                             
02CABD370620MDFRCL06CABD3706202J401099673CAREAGA                                           Y BECERRA                                         MARIA DELFINA ELISA                               075542022010320220103202206151 01508635500000001209000000000000000000159760000000000000000039939000000526770000000000000000000000000000863550000006407500000000000000000000000000000755600000008636000000000000000001717600000000898202211                                                                                                                             
02GOMG771212MDFNCD05GOMG771212BT100704030GONZALEZ                                          MUCIÑO                                            MARIA GUADALUPE                                   075542021080920210809202112311 01507293750000001021100000000000000000134930000000000000000033734000000444920000000000000000000000000000729380000005412000000000000000000000000000000638200000007294000000000000000001450700000000759202211                                                                                                                             
02CATP980824MMCSNL08CATP980824QD701609128CASTILLO                                          TENORIO                                           MARIA PAULINA                                     075302022031620220316202207151 01507293750000001021100000000000000000134930000000000000000033734000000444920000000000000000000000000000729380000005412000000000000000000000000000000638200000007294000000000000000001450700000000759202211                                                                                                                             
02RARR730312HDFMBG01RARR730312DC101561684RAMIREZ                                           ROBLES                                            ROGELIO ABRAHAM                                   075302022010320220103202206151 01511286000000001580000000000000000000208790000000000000000052198000000688450000000000000000000000000001128600000008374200000000000000000000000000000987500000011286000000000000000002244800000001174202211                                                                                                                             
02SOPL750425HDFPLS02SOPL750425P1901559828SOPELANA                                          PALOMINO                                          LUIS EDUARDO                                      075302022010320220103202206151 01504446000000000622400000000000000000082250000000000000000020563000000271210000000000000000000000000000444600000003298900000000000000000000000000000389000000004446000000000000000000884300000000462202211                                                                                                                             
02GOSL720507MMCMGT00GOSL720507F5301570559GOMEZ                                             SEGURA                                            LETICIA                                           075302022010320220103202206151 01504275000000000598500000000000000000079090000000000000000019772000000260780000000000000000000000000000427500000003172100000000000000000000000000000374100000004275000000000000000000850300000000445202211                                                                                                                             
02AEOM670309HOCSLN02AEOM670309FQ001588538ASENCIO                                           OLIVERA                                           MINERVO                                           075302022010320220103202206151 01505044500000000706200000000000000000093320000000000000000023331000000307710000000000000000000000000000504450000003743000000000000000000000000000000441400000005045000000000000000001003400000000525202211                                                                                                                             
02BEMG950227HMCRCN07BEMG950227GM301549769BERMUDEZ                                          MUCIÑO                                            GONZALO                                           075302022060120220601202207151 01502629060000000368100000000000000000048640000000000000000012159000000160370000000000000000000000000000262910000001950800000000000000000000000000000230000000002629000000000000000000522900000000273202211                                                                                                                             
02OOKP690904MDFRRT00OOKP690904UW300466642OROPEZA                                           KERESEY                                           PATRICIA LORENA                                   075542021080920210809202112311 01503178000000000444900000000000000000058790000000000000000014698000000193860000000000000000000000000000317800000002358100000000000000000000000000000278100000003178000000000000000000632100000000331202211                                                                                                                             
02BURM011012HMCRYGA4BURM011012K8801593731BRUNO                                             REYES                                             MIGUEL                                            075302022010320220103202206151 01505899500000000825900000000000000000109140000000000000000027285000000359870000000000000000000000000000589950000004377400000000000000000000000000000516200000005900000000000000000001173400000000614202211                                                                                                                             
02RODD800905HMNMZR06RODD800905CV500919002ROMERO                                            DIAZ                                              DARIO                                             075542022010320220103202206151 01507353000000001029400000000000000000136030000000000000000034008000000448530000000000000000000000000000735300000005455900000000000000000000000000000643400000007353000000000000000001462500000000765202211                                                                                                                             
02RAMC911001HDFMDS08RAMC9110014T501581592RAMIREZ                                           MEDINA                                            CESAR OMAR                                        075302022010320220103202206151 01506070500000000849900000000000000000112300000000000000000028076000000370300000000000000000000000000000607050000004504300000000000000000000000000000531200000006071000000000000000001207400000000631202211                                                                                                                             
02MACV530711MMCRLR07MACV530711U1501252429MARTINEZ                                          CALDERON                                          VERONICA                                          075302022010320220103202206151 01502629060000000368100000000000000000048640000000000000000012159000000160370000000000000000000000000000262910000001950800000000000000000000000000000230000000002629000000000000000000522900000000273202211                                                                                                                             
02BAPA900720HDFRXL07BAPA900720B4201257516BARAJAS                                           PEÑA                                              ALAN CHRISTIAN                                    075302022010320220103202206151 01502629060000000368100000000000000000048640000000000000000012159000000160370000000000000000000000000000262910000001950800000000000000000000000000000230000000002629000000000000000000522900000000273202211                                                                                                                             
02VITE920813HMCLRD03VITE920813TBA01118703VILLALOBOS                                        TRUEBA                                            EDUARDO                                           075542021091620210916202112311 01503439800000000481600000000000000000063640000000000000000015909000000209830000000000000000000000000000343980000002552300000000000000000000000000000301000000003440000000000000000000684200000000358202211                                                                                                                             
02GOLJ570407HSPNPN05GOLJ570407K8801609012GONZALEZ                                          LOPEZ                                             JUAN                                              075302022031620220316202207151 01507293750000001021100000000000000000134930000000000000000033734000000444920000000000000000000000000000729380000005412000000000000000000000000000000638200000007294000000000000000001450700000000759202211                                                                                                                             
02OOSJ740113HMCSNN00OOSJ7401131Q000333875OSORIO                                            SAENZ                                             JUAN CARLOS                                       075542022010320220103202206151 01507353000000001029400000000000000000136030000000000000000034008000000448530000000000000000000000000000735300000005455900000000000000000000000000000643400000007353000000000000000001462500000000765202211                                                                                                                             
02EACG860822HMCSSR03EACG86082243500891274ESTRADA                                           CASTAÑEDA                                         GERARDO                                           075542015070120180703201812151 01502629060000000368100000000000000000048640000000000000000012159000000160370000000000000000000000000000262910000001950800000000000000000000000000000230000000002629000000000000000000522900000000273202211                                                                                                                             
02DIMR820403HOCZNC08DIMR820403P5301315832DIAZ                                              MENDEZ                                            RICARDO FAUSTINO                                  075302021080920210809202112311 01511670000000001633800000000000000000215900000000000000000053974000000711870000000000000000000000000001167000000008659100000000000000000000000000001021100000011670000000000000000002321200000001214202211                                                                                                                             
02COCG020703HMCNSBA1COCG020703BZ101582962CONTRERAS                                         CASTILLO                                          GABRIEL EMMANUEL                                  075302022010320220103202206151 01506070500000000849900000000000000000112300000000000000000028076000000370300000000000000000000000000000607050000004504300000000000000000000000000000531200000006071000000000000000001207400000000631202211                                                                                                                             
02GAVC980831HMCRLR03GAVC980831NX601566038GARCIA                                            VALDES                                            CARLOS                                            075542022010320220103202206151 01503249000000000454900000000000000000060110000000000000000015027000000198190000000000000000000000000000324900000002410800000000000000000000000000000284300000003249000000000000000000646200000000338202211                                                                                                                             
02ROQI720101MDFJNR07ROQI720101BY901162395ROJAS                                             QUINTERO                                          IRMA VIOLETA                                      075542022010320220103202206151 01502629060000000368100000000000000000048640000000000000000012159000000160370000000000000000000000000000262910000001950800000000000000000000000000000230000000002629000000000000000000522900000000273202211                                                                                                                             
02GAGP690905HDFLND08GAGP690905I2100704028GALINDO                                           GONZALEZ                                          PEDRO IGNACIO                                     075542021080920210809202112311 01502917500000000408500000000000000000053970000000000000000013493000000177970000000000000000000000000000291750000002164800000000000000000000000000000255300000002918000000000000000000580300000000303202211                                                                                                                             
02VXCA670110HDFZRR05VACA670110SS001184154VAZQUEZ                                           CRUZ                                              ARTURO                                            075302022010320220103202206151 01502629060000000368100000000000000000048640000000000000000012159000000160370000000000000000000000000000262910000001950800000000000000000000000000000230000000002629000000000000000000522900000000273202211                                                                                                                             
02LONG530209HMCPVL04LONG530209A4301014276LOPEZ                                             NAVA                                              GUILLERMO ALEJO                                   075542021080920210809202112311 01503792750000000531000000000000000000070170000000000000000017541000000231360000000000000000000000000000379280000002814200000000000000000000000000000331900000003793000000000000000000754400000000394202211                                                                                                                             
02ZABR750101HMCRRF04ZABR750101QY100779272ZARATE                                            BERNAL                                            RAFAEL                                            075542021080920210809202112311 01504959750000000694400000000000000000091760000000000000000022939000000302540000000000000000000000000000495980000003680100000000000000000000000000000434000000004960000000000000000000986500000000516202211                                                                                                                             
02ROBV820728HMCSRC03ROBV820728TLA01561675DE LA ROSA                                        BARRETO                                           VICTOR HUGO                                       075302021080920210809202112311 01504131400000000578400000000000000000076430000000000000000019108000000252020000000000000000000000000000413140000003065500000000000000000000000000000361500000004131000000000000000000821700000000430202211                                                                                                                             
02AAEA930617MMCLSN00AAEA9306171I901584712ALCANTARA                                         ESCOBAR                                           ANA KAREN                                         075302021070120210701202112311 01511670000000001633800000000000000000215900000000000000000053974000000711870000000000000000000000000001167000000008659100000000000000000000000000001021100000011670000000000000000002321200000001214202211                                                                                                                             
02CAFM880927HDFRRN08CAFM8809274Q201235570CARMONA                                           FRANCO                                            MANUEL                                            075302022010320220103202206151 01502629060000000368100000000000000000048640000000000000000012159000000160370000000000000000000000000000262910000001950800000000000000000000000000000230000000002629000000000000000000522900000000273202211                                                                                                                             
02AAXA630820HNEGXR04AAAR6308208S000659038AGHABEKYAN                                                                                          ARMEN                                             075542021080920210809202112311 01504959750000000694400000000000000000091760000000000000000022939000000302540000000000000000000000000000495980000003680100000000000000000000000000000434000000004960000000000000000000986500000000516202211                                                                                                                             
02SASM681120MMCNTG08SASM681120B9401561682SANCHEZ                                           SOTELO                                            MA. MAGDALENA                                     075302021080920210809202112311 01503792750000000531000000000000000000070170000000000000000017541000000231360000000000000000000000000000379280000002814200000000000000000000000000000331900000003793000000000000000000754400000000394202211                                                                                                                             
02VAQR881028HMCZZB03VAQR8810286X201575125VAZQUEZ                                           QUEZADA                                           ROBERTO ADRIAN                                    075542022010320220103202206151 01505643000000000790000000000000000000104400000000000000000026099000000344220000000000000000000000000000564300000004187100000000000000000000000000000493800000005643000000000000000001122400000000587202211                                                                                                                             
02TORA890409MMCRMN04TORA8904095M301502008TORRES                                            RAMOS                                             ANAHI                                             075302022010320220103202206151 01502629060000000368100000000000000000048640000000000000000012159000000160370000000000000000000000000000262910000001950800000000000000000000000000000230000000002629000000000000000000522900000000273202211                                                                                                                             
02CURC860503HMCVSR05CURC860503IX300936447CUEVAS                                            ROSALES                                           CRISTOPHER                                        075302022010320220103202206151 01507353000000001029400000000000000000136030000000000000000034008000000448530000000000000000000000000000735300000005455900000000000000000000000000000643400000007353000000000000000001462500000000765202211                                                                                                                             
02ROAL920828HMCJRN06ROAL920828GA401570568ROJAS                                             ARMENTA                                           LEONARDO                                          075302022010320220103202206151 01502736000000000383000000000000000000050620000000000000000012654000000166900000000000000000000000000000273600000002030100000000000000000000000000000239400000002736000000000000000000544200000000285202211                                                                                                                             
02BAPD610521HNERNW16BAPD610521SJ300286580BRYAN                                             PENNINGTON                                        DWIGHT LLOYD                                      075542021080920210809202112310 01504959750000000000000000000000000000000000000000000000000022939000000302540000000000000000000000000000495980000003680100000000000000000000000000000434000000004960000000000000000000986500000000516202211                                                                                                                             
02HEMC841024HMCRRR04HEMC841024UN700704031HERNANDEZ                                         MARTINEZ                                          CARLOS                                            075542021080920210809202112311 01511670000000001633800000000000000000215900000000000000000053974000000711870000000000000000000000000001167000000008659100000000000000000000000000001021100000011670000000000000000002321200000001214202211                                                                                                                             
02EUMG981210MMCNRD07EUMG981210QL601584646ENGUILO                                           MARTINEZ                                          GUADALUPE ABIGAIL                                 075302022010320220103202206151 01506412500000000897800000000000000000118630000000000000000029658000000391160000000000000000000000000000641250000004758100000000000000000000000000000561100000006413000000000000000001275400000000667202211                                                                                                                             
02MASF740517MDFTNB05MASF740517QR700621054MATAMOROS                                         SANCHEZ                                           FABIOLA PILAR                                     075542021080920210809202112311 01503501000000000490100000000000000000064770000000000000000016192000000213560000000000000000000000000000350100000002597700000000000000000000000000000306300000003501000000000000000000696300000000364202211                                                                                                                             
02AAPP680212HDFLRR08AAPP680212DK500743484ALVAREZ                                           PEREZ                                             PERCIVAL                                          075302021080920210809202112311 01504824300000000675400000000000000000089250000000000000000022312000000294280000000000000000000000000000482430000003579600000000000000000000000000000422100000004824000000000000000000959600000000502202211                                                                                                                             
02LEPN910412HDFNTS03LEPN910412JN201546581LEON                                              PETLECHE                                          NESTOR JOAN                                       075302022010320220103202206151 01502629060000000368100000000000000000048640000000000000000012159000000160370000000000000000000000000000262910000001950800000000000000000000000000000230000000002629000000000000000000522900000000273202211                                                                                                                             
02GOBR960511MMCNNT04GOBR9605116T001546571GONZALEZ                                          BONILLA                                           RUTH                                              075302022010320220103202206151 01507353000000001029400000000000000000136030000000000000000034008000000448530000000000000000000000000000735300000005455900000000000000000000000000000643400000007353000000000000000001462500000000765202211                                                                                                                             
02CAVK891105MDFSCR01CAVK8911054S301264354CASTRO                                            VICTORIA                                          KARLA ELIZABETH                                   075302022010320220103202206151 01502629060000000368100000000000000000048640000000000000000012159000000160370000000000000000000000000000262910000001950800000000000000000000000000000230000000002629000000000000000000522900000000273202211                                                                                                                             
02SASA960416MMCNNN04SASA9604166E001584632SANCHEZ                                           SANCHEZ                                           ANA AIME                                          075302022010320220103202206151 01502629060000000368100000000000000000048640000000000000000012159000000160370000000000000000000000000000262910000001950800000000000000000000000000000230000000002629000000000000000000522900000000273202211                                                                                                                             
02MAMX891022MMCRXC09MAMX891022ANA01162857MARTINEZ                                          MUÑOZ                                             XOCHITL CYNTHIA                                   075542022010320220103202206151 01502629060000000368100000000000000000048640000000000000000012159000000160370000000000000000000000000000262910000001950800000000000000000000000000000230000000002629000000000000000000522900000000273202211                                                                                                                             
02MOOA800827MDFRRZ09MOOA800827NU401530731MORALES                                           ORRANTIA                                          AZALEA HAYDEE                                     075302022010320220103202206151 01502629060000000368100000000000000000048640000000000000000012159000000160370000000000000000000000000000262910000001950800000000000000000000000000000230000000002629000000000000000000522900000000273202211                                                                                                                             
02CAVS930820MDFLLM02CAVS930820VB001593735CLARA                                             VALENTIN                                          SAMANTHA                                          075302022010320220103202206151 01502629060000000368100000000000000000048640000000000000000012159000000160370000000000000000000000000000262910000001950800000000000000000000000000000230000000002629000000000000000000522900000000273202211                                                                                                                             
02GAMM631218MDFLNR03GAMM631218BW000929842GALICIA                                           MONTES                                            MERCEDES                                          075302022010320220103202206151 01502629060000000368100000000000000000048640000000000000000012159000000160370000000000000000000000000000262910000001950800000000000000000000000000000230000000002629000000000000000000522900000000273202211                                                                                                                             
02MOFE661108HMCRRR04MOFE661108IAA00620218MORALES                                           FERNANDEZ                                         ERNESTO                                           075542015070100010101000101011 01504025000000000563500000000000000000074460000000000000000018616000000245530000000000000000000000000000402500000002986600000000000000000000000000000352200000004025000000000000000000800600000000419202211                                                                                                                             
02LAXS551019MNERXB05LAMS551019HP500286553LAURAIN                                                                                             SABINA JEANNE                                     075542021080920210809202112311 01504959750000000694400000000000000000091760000000000000000022939000000302540000000000000000000000000000495980000003680100000000000000000000000000000434000000004960000000000000000000986500000000516202211                                                                                                                             
02SEOF981210HMCRRR03SEOF981210MEA01584639SERRANO                                           OROZCO                                            FERNANDO ALONSO                                   075302022010320220103202206151 01504275000000000598500000000000000000079090000000000000000019772000000260780000000000000000000000000000427500000003172100000000000000000000000000000374100000004275000000000000000000850300000000445202211                                                                                                                             
02RUPA271230HMCZRN07RUPA271230A8000039867RUIZ                                              PEREZ                                             ANTONIO                                           075542022010320220103202206151 01510602000000001484300000000000000000196140000000000000000049034000000646720000000000000000000000000001060200000007866700000000000000000000000000000927700000010602000000000000000002108700000001103202211                                                                                                                             
02AEJD830729HNENCR06AEJD830729NCA00620903ANDERSON                                          JACAMO                                            DARYL RODWELL                                     075542021080920210809202112311 01504959750000000694400000000000000000091760000000000000000022939000000302540000000000000000000000000000495980000003680100000000000000000000000000000434000000004960000000000000000000986500000000516202211                                                                                                                             
02VAGD890131MHGLRN07VAGD890131HT001161860VALENCIA                                          GARCIA                                            DIANA                                             075542022010320220103202206151 01502629060000000368100000000000000000048640000000000000000012159000000160370000000000000000000000000000262910000001950800000000000000000000000000000230000000002629000000000000000000522900000000273202211                                                                                                                             
02BADL880426HMCRZS02BADL880426S2101587250BARRERA                                           DIAZ                                              LUIS ENRIQUE                                      075302022010320220103202206151 01504275000000000598500000000000000000079090000000000000000019772000000260780000000000000000000000000000427500000003172100000000000000000000000000000374100000004275000000000000000000850300000000445202211                                                                                                                             
02CUAD950729MMCRLN08CUAD950729C6901280429CRUZ                                              ALVAREZ                                           DIANA LORENA                                      075302022010320220103202206151 01508037000000001125200000000000000000148680000000000000000037171000000490260000000000000000000000000000803700000005963500000000000000000000000000000703200000008037000000000000000001598600000000836202211                                                                                                                             
02DURC650413MDFRBR06DURC650413UY901584634DURAN                                             ROBLES                                            CRISTINA ANA                                      075302022010320220103202206151 01502629060000000368100000000000000000048640000000000000000012159000000160370000000000000000000000000000262910000001950800000000000000000000000000000230000000002629000000000000000000522900000000273202211                                                                                                                             
02EOPA900806MGTSRD05EOPA900806QJ401593745ESCOBAR                                           PEREZ                                             AIDA HORTENSIA                                    075302022010320220103202206151 01504275000000000598500000000000000000079090000000000000000019772000000260780000000000000000000000000000427500000003172100000000000000000000000000000374100000004275000000000000000000850300000000445202211                                                                                                                             
02TAVP800813HDFMZB07TAVP800813A2501184923TAMES                                             VAZQUEZ                                           PABLO                                             075302021080920210809202112311 01506710250000000939400000000000000000124140000000000000000031035000000409330000000000000000000000000000671030000004979000000000000000000000000000000587100000006710000000000000000001334700000000698202211                                                                                                                             
02GUTE720901HMCTVD04GUTE720901Q4000851411GUTIERREZ                                         TAVERA                                            EDGAR ARTURO                                      075542021080920210809202112311 01504376250000000612700000000000000000080960000000000000000020240000000266950000000000000000000000000000437630000003247200000000000000000000000000000382900000004376000000000000000000870400000000455202211                                                                                                                             
02TECJ820807HMCRMS09TECJ820807B8701573775TREVIÑO                                           CAMACHO                                           JESUS ARMANDO                                     075302022010320220103202206151 01508293500000001161100000000000000000153430000000000000000038357000000505900000000000000000000000000000829350000006153800000000000000000000000000000725700000008294000000000000000001649600000000863202211                                                                                                                             
02AEGS840504MDFLNL09AEGS840504UU901203435ALEMAN                                            GONZALEZ DUHART                                   SILVIA                                            075302022010320220103202206151 01507353000000001029400000000000000000136030000000000000000034008000000448530000000000000000000000000000735300000005455900000000000000000000000000000643400000007353000000000000000001462500000000765202211                                                                                                                             
02TAXN680711MNESXN06TANU6807115Y400554512TSHAVRSHYAN                                                                                         NUNE                                              075542021080920210809202112311 01507585500000001062000000000000000000140330000000000000000035083000000462720000000000000000000000000000758550000005628400000000000000000000000000000663700000007586000000000000000001508800000000789202211                                                                                                                             
02MOGL781130MDFRNR00MOGL781130MW601549783MORELOS                                           GONZALEZ                                          LOURDES NATALIA                                   075302021080920210809202112311 01507293750000001021100000000000000000134930000000000000000033734000000444920000000000000000000000000000729380000005412000000000000000000000000000000638200000007294000000000000000001450700000000759202211                                                                                                                             
02MAFA780529HMCRLR06MAFA7805297A900745796MARTINEZ                                          FLORES                                            JOSE AURELIO                                      075302022010320220103202206151 01507353000000001029400000000000000000136030000000000000000034008000000448530000000000000000000000000000735300000005455900000000000000000000000000000643400000007353000000000000000001462500000000765202211                                                                                                                             
02CEBG791030MDFDND00CEBG791030QG500676681CEDILLO                                           BENITEZ                                           MARIA GUADALUPE                                   075302022010320220103202206151 01502629060000000368100000000000000000048640000000000000000012159000000160370000000000000000000000000000262910000001950800000000000000000000000000000230000000002629000000000000000000522900000000273202211                                                                                                                             
02LIRV961126HMCMMC01LIRV961126K6A01584699LIMA                                              RAMIREZ                                           VICTOR MANUEL                                     075302022010320220103202206151 01502629060000000368100000000000000000048640000000000000000012159000000160370000000000000000000000000000262910000001950800000000000000000000000000000230000000002629000000000000000000522900000000273202211                                                                                                                             
02LOME880511HMCPND02LOME88051178A00781520LOPEZ                                             MONTENEGRO                                        JOSE EDUARDO                                      075542021080920210809202112311 01505835000000000816900000000000000000107950000000000000000026987000000355940000000000000000000000000000583500000004329600000000000000000000000000000510600000005835000000000000000001160600000000607202211                                                                                                                             
02CARC930430HDFRVR08CARC930430RA501285500CARPIZO                                           RIVERO                                            CARLOS ANDRES                                     075302021080920210809202112311 01505835000000000816900000000000000000107950000000000000000026987000000355940000000000000000000000000000583500000004329600000000000000000000000000000510600000005835000000000000000001160600000000607202211                                                                                                                             
02LORJ850910HDFPSN06LORJ850910L5501191198LOPEZ                                             RESENDIZ                                          JUAN CARLOS                                       075302022010320220103202206151 01504104000000000574600000000000000000075920000000000000000018981000000250340000000000000000000000000000410400000003045200000000000000000000000000000359100000004104000000000000000000816300000000427202211                                                                                                                             
02CAZP740516MMCMMT09CAZP740516GY601609141CAMACHO                                           ZAMORA                                            PATRICIA                                          075302022031620220316202207151 01507293750000001021100000000000000000134930000000000000000033734000000444920000000000000000000000000000729380000005412000000000000000000000000000000638200000007294000000000000000001450700000000759202211                                                                                                                             
02BAPA990507MMCLND07BAPA990507HN001535984BLANCAS                                           PINEDA                                            ADALIN JAZMIN                                     075302022010320220103202206151 01502629060000000368100000000000000000048640000000000000000012159000000160370000000000000000000000000000262910000001950800000000000000000000000000000230000000002629000000000000000000522900000000273202211                                                                                                                             
02GUCM930105MMCRLR02GUCM930105TF501591133GUERRERO                                          COLIN                                             MARGARITA                                         075302021101620211016202112311 01502629060000000368100000000000000000048640000000000000000012159000000160370000000000000000000000000000262910000001950800000000000000000000000000000230000000002629000000000000000000522900000000273202211                                                                                                                             
02VEMA690329HMCLRR06VEMA6903299B100245353VELASCO                                           MORALES                                           ARMANDO                                           075542021080920210809202112310 01503178000000000000000000000000000000000000000000000000000014698000000193860000000000000000000000000000317800000002358100000000000000000000000000000278100000003178000000000000000000632100000000331202211                                                                                                                             
02CUCM930502MMCTPR07CUCM930502TH801183838CUATE                                             CAPULIN                                           MARICRUZ                                          075302022010320220103202206151 01507011000000000981500000000000000000129700000000000000000032426000000427670000000000000000000000000000701100000005202200000000000000000000000000000613500000007011000000000000000001394500000000729202211                                                                                                                             
02PERE921102HDFRMR04PERE921102UK501184136PEREZ                                             ROMERO                                            ERIK JAVIER                                       075302022010320220103202206151 01502629060000000368100000000000000000048640000000000000000012159000000160370000000000000000000000000000262910000001950800000000000000000000000000000230000000002629000000000000000000522900000000273202211                                                                                                                             
02VACM640522HDFRRR00VACM6405227M201162481VARGAS                                            CRUZ                                              MARIO                                             075542022010320220103202206151 01502629060000000368100000000000000000048640000000000000000012159000000160370000000000000000000000000000262910000001950800000000000000000000000000000230000000002629000000000000000000522900000000273202211                                                                                                                             
02JAGG801022MDFSRD07JAGG8010221E501162855JASPEADO                                          GARCIA                                            MARIA GUADALUPE                                   075302022010320220103202206151 01502629060000000368100000000000000000048640000000000000000012159000000160370000000000000000000000000000262910000001950800000000000000000000000000000230000000002629000000000000000000522900000000273202211                                                                                                                             
02ROGM500614HDFDTD02ROGM500614JJ801587228RODRIGUEZ                                         GUTIERREZ                                         MODESTO AGUSTIN                                   075302022010320220103202206151 01509661500000001352600000000000000000178740000000000000000044684000000589350000000000000000000000000000966150000007168800000000000000000000000000000845400000009662000000000000000001921700000001005202211                                                                                                                             
02CUOI840408HDFRLS09CUOI8404084W000983683CRUZ                                              OLALDE                                            ISRAEL                                            075302021080920210809202112311 01502629060000000368100000000000000000048640000000000000000012159000000160370000000000000000000000000000262910000001950800000000000000000000000000000230000000002629000000000000000000522900000000273202211                                                                                                                             
02CIVE631216HDFSTL00CIVE631216CB801162901CISNEROS                                          VITE                                              ELIAS                                             075542022010320220103202206151 01502629060000000368100000000000000000048640000000000000000012159000000160370000000000000000000000000000262910000001950800000000000000000000000000000230000000002629000000000000000000522900000000273202211                                                                                                                             
02PAAN770603MMCCVR01PAAN7706034Q300589726PACHECO                                           AVILES                                            NORMA ANGELICA                                    075542015070120180703201812150 01502629060000000000000000000000000000000000000000000000000012159000000160370000000000000000000000000000262910000001950800000000000000000000000000000230000000002629000000000000000000522900000000273202211                                                                                                                             
02SAMS601008MMCNRR00SAMS60100894900167783SANCHEZ                                           MERCADO                                           SARA GRISELDA                                     075302021080920210809202112310 01503792750000000000000000000000000000000000000000000000000017541000000231360000000000000000000000000000379280000002814200000000000000000000000000000331900000003793000000000000000000754400000000394202211                                                                                                                             
02HESM751114HDFRLR05HESM751114B2900639791HERNANDEZ                                         SOLORZANO                                         MARIANO                                           075542021080920210809202112311 01504376250000000612700000000000000000080960000000000000000020240000000266950000000000000000000000000000437630000003247200000000000000000000000000000382900000004376000000000000000000870400000000455202211                                                                                                                             
02SASD760321HDFNCV05SASD760321CU100713842SANCHEZ                                           SACRAMENTO                                        DAVID                                             075542021080920210809202112311 01509627750000001347900000000000000000178110000000000000000044528000000587290000000000000000000000000000962780000007143800000000000000000000000000000842400000009628000000000000000001915000000001001202211                                                                                                                             
02JIVE640715HMCMLN07JIVE640715H6600586890JIMENEZ                                           VALENCIA                                          ENRIQUE EDUARDO                                   075542022010320220103202206151 01502629060000000368100000000000000000048640000000000000000012159000000160370000000000000000000000000000262910000001950800000000000000000000000000000230000000002629000000000000000000522900000000273202211                                                                                                                             
02GILB731218MDFLPL03GILB7312184Q501570556GIL                                               LOPEZ                                             BLANCA ESTELA                                     075302022010320220103202206151 01503078000000000430900000000000000000056940000000000000000014236000000187760000000000000000000000000000307800000002283900000000000000000000000000000269300000003078000000000000000000612200000000320202211                                                                                                                             
02VAMG910214HMCRRB08VAMG9102147Y401231465VARGAS                                            MIRANDA                                           GABRIEL                                           075302022010320220103202206151 01507353000000001029400000000000000000136030000000000000000034008000000448530000000000000000000000000000735300000005455900000000000000000000000000000643400000007353000000000000000001462500000000765202211                                                                                                                             
02PABA830914MDFLTL05PABA8309141Q601162898PALAFOX                                           BAUTISTA                                          ALMA ROCIO                                        075542022010320220103202206151 01502629060000000368100000000000000000048640000000000000000012159000000160370000000000000000000000000000262910000001950800000000000000000000000000000230000000002629000000000000000000522900000000273202211                                                                                                                             
02MUSC710715MMCCNR02MUSC710715E1800310845MUCIÑO                                            SANDOVAL                                          MARIA DEL CARMEN                                  075302022010320220103202206151 01502629060000000368100000000000000000048640000000000000000012159000000160370000000000000000000000000000262910000001950800000000000000000000000000000230000000002629000000000000000000522900000000273202211                                                                                                                             
02TUMO900523HMCRRC08TUMO900523JB801502013TRUJANO                                           MARTINEZ                                          OCTAVIO                                           075302022010320220103202206151 01502629060000000368100000000000000000048640000000000000000012159000000160370000000000000000000000000000262910000001950800000000000000000000000000000230000000002629000000000000000000522900000000273202211                                                                                                                             
02ROIM790728HMCSTR08ROIM7907288C400807178ROSALES                                           ITURBIDE                                          MARCO ANTONIO                                     075542021080920210809202112311 01503704400000000518600000000000000000068530000000000000000017133000000225970000000000000000000000000000370440000002748700000000000000000000000000000324100000003704000000000000000000736800000000385202211                                                                                                                             
02FOMP940905MMCLJL05FOMP94090534901502384FLORES                                            MEJIA                                             MARIA DEL PILAR                                   075302021080920210809202112311 01504449200000000622900000000000000000082310000000000000000020578000000271400000000000000000000000000000444920000003301300000000000000000000000000000389300000004449000000000000000000884900000000463202211                                                                                                                             
02VAPD760105HDFZRN03VAPD7601058H800548159VAZQUEZ                                           PEREZ                                             DANIEL                                            075542021080920210809202112311 01507585500000001062000000000000000000140330000000000000000035083000000462720000000000000000000000000000758550000005628400000000000000000000000000000663700000007586000000000000000001508800000000789202211                                                                                                                             
02VIOM950523MMCVRY06VIOM950523K2001584692VIVAR                                             OROZCO                                            MAYEL ANDREA                                      075302022010320220103202206151 01503078000000000430900000000000000000056940000000000000000014236000000187760000000000000000000000000000307800000002283900000000000000000000000000000269300000003078000000000000000000612200000000320202211                                                                                                                             
02RABM950410MMNBLR04RABM9504103I301609135RABADAN                                           BLANCAS                                           MARTHA LAURA                                      075302022031620220316202207151 01507293750000001021100000000000000000134930000000000000000033734000000444920000000000000000000000000000729380000005412000000000000000000000000000000638200000007294000000000000000001450700000000759202211                                                                                                                             
02COLD740608HDFLPV08COLD7406087E500479462COLIN                                             LOPEZ                                             DAVID ALEJANDRO                                   075302021080920210809202112311 01506038200000000845300000000000000000111710000000000000000027927000000368330000000000000000000000000000603820000004480300000000000000000000000000000528300000006038000000000000000001201000000000628202211                                                                                                                             
02VEPA971003MMCRXM00VEPA971003BM701593857VERGES                                            PIÑA                                              AMAIRANI                                          075302022010320220103202206151 01502629060000000368100000000000000000048640000000000000000012159000000160370000000000000000000000000000262910000001950800000000000000000000000000000230000000002629000000000000000000522900000000273202211                                                                                                                             
02AEAA931226HMCLGR04AEAA931226JA501546706ALEJANDRE                                         AGUILAR                                           AARON ALEJANDRO                                   075302022010320220103202206151 01502736000000000383000000000000000000050620000000000000000012654000000166900000000000000000000000000000273600000002030100000000000000000000000000000239400000002736000000000000000000544200000000285202211                                                                                                                             
02FAMF750513MDFLRL01FAMF750513LD001252433FALCON                                            MORALES                                           FLOR ELIZABETH                                    075302022010320220103202206151 01507353000000001029400000000000000000136030000000000000000034008000000448530000000000000000000000000000735300000005455900000000000000000000000000000643400000007353000000000000000001462500000000765202211                                                                                                                             
02OAVF880201HMCLLR01OAVF880201QJ301162513OLASCOAGA                                         VALLADARES                                        FERNANDO                                          075542021080920210809202112311 01503792750000000531000000000000000000070170000000000000000017541000000231360000000000000000000000000000379280000002814200000000000000000000000000000331900000003793000000000000000000754400000000394202211                                                                                                                             
02ZEEA821219HDFNSL06ZEEA8212195W300668977ZENDEJAS                                          ESTRADA                                           JOSE ALFREDO EMMANUEL                             075542021080920210809202112311 01504959750000000694400000000000000000091760000000000000000022939000000302540000000000000000000000000000495980000003680100000000000000000000000000000434000000004960000000000000000000986500000000516202211                                                                                                                             
02AOVV820907HDFLVL00AOVV82090721701563867ALFONSECA                                         VIVAR                                             VLADIMIR                                          075302021080920210809202112311 01511086500000001552100000000000000000205100000000000000000051275000000676280000000000000000000000000001108650000008226200000000000000000000000000000970100000011087000000000000000002205100000001153202211                                                                                                                             
02CASL801119HMCSLB05CASL801119CU500860868CASTAÑEDA                                         SILVA                                             LOBSANG                                           075542022010320220103202206151 01505557500000000778100000000000000000102810000000000000000025703000000339010000000000000000000000000000555750000004123700000000000000000000000000000486300000005558000000000000000001105400000000578202211                                                                                                                             
02MADH760803HPLRGR08MADH760803AH301235513MARTINEZ                                          DIEGO                                             HERMELO                                           075302022010320220103202206151 01502629060000000368100000000000000000048640000000000000000012159000000160370000000000000000000000000000262910000001950800000000000000000000000000000230000000002629000000000000000000522900000000273202211                                                                                                                             
02AAMA520424HMNLRD16AAMA520424CB901162842ALVAREZ                                           MARINEZ                                           ADALBERTO                                         075542022010320220103202206151 01502629060000000368100000000000000000048640000000000000000012159000000160370000000000000000000000000000262910000001950800000000000000000000000000000230000000002629000000000000000000522900000000273202211                                                                                                                             
02CUAJ900619HMCRGN04CUAJ900619FU701152577CRUZ                                              AGUILAR                                           JUAN JOSE                                         075542021080920210809202112311 01502917500000000408500000000000000000053970000000000000000013493000000177970000000000000000000000000000291750000002164800000000000000000000000000000255300000002918000000000000000000580300000000303202211                                                                                                                             
02ZAFV830301MDFRLN09ZAFV830301MN601280439ZARAZUA                                           FLORES                                            VIANCA HORTENCIA                                  075302022010320220103202206151 01502629060000000368100000000000000000048640000000000000000012159000000160370000000000000000000000000000262910000001950800000000000000000000000000000230000000002629000000000000000000522900000000273202211                                                                                                                             
02OACE700221MMCCNL02OACE7002218M600297123OCAMPO                                            CONTRERAS                                         ELVIA HERLINDA                                    075542015070120180703201812150 01502629060000000000000000000000000000000000000000000000000012159000000160370000000000000000000000000000262910000001950800000000000000000000000000000230000000002629000000000000000000522900000000273202211                                                                                                                             
02PEJK880603MMCRMR07PEJK88060364801549785PEREZ                                             JAIMES                                            KAREN GABRIELA                                    075302021080920210809202112311 01504376250000000612700000000000000000080960000000000000000020240000000266950000000000000000000000000000437630000003247200000000000000000000000000000382900000004376000000000000000000870400000000455202211                                                                                                                             
02PAVR930719HDFRLY01PAVR930719RM201593799PAREDES                                           VELASCO                                           RAYMUNDO                                          075302022010320220103202206151 01502629060000000368100000000000000000048640000000000000000012159000000160370000000000000000000000000000262910000001950800000000000000000000000000000230000000002629000000000000000000522900000000273202211                                                                                                                             
02RILA710129MDFVNL09RILA71012932900854693RIVERA                                            LEON                                              ALMA IVONNE                                       075542022010320220103202206151 01502629060000000368100000000000000000048640000000000000000012159000000160370000000000000000000000000000262910000001950800000000000000000000000000000230000000002629000000000000000000522900000000273202211                                                                                                                             
02HUAK810530MGTRGR01HUAK810530QG300848594HURTADO                                           AGUADO                                            KARIMA ALEXANDRA                                  075542021080920210809202112311 01506038200000000845300000000000000000111710000000000000000027927000000368330000000000000000000000000000603820000004480300000000000000000000000000000528300000006038000000000000000001201000000000628202211                                                                                                                             
02EICF821030MMCNNN07EICF8210301H900627822ENRIQUEZ                                          CANO                                              FANY GUADALUPE                                    075302022010320220103202206151 01507267500000001017500000000000000000134450000000000000000033612000000443320000000000000000000000000000726750000005392500000000000000000000000000000635900000007268000000000000000001445500000000756202211                                                                                                                             
02JUMT781021MMCRRR08JUMT781021UQ701163098JUAREZ                                            MARTINEZ                                          MARIA TERESA                                      075542022010320220103202206151 01502629060000000368100000000000000000048640000000000000000012159000000160370000000000000000000000000000262910000001950800000000000000000000000000000230000000002629000000000000000000522900000000273202211                                                                                                                             
02TEEX020103MMCNSMA5TEEX020103RN501577339TENORIO                                           ESPINAL                                           XIMENA ELIZABETH                                  075302022010320220103202206151 01506498000000000909700000000000000000120210000000000000000030053000000396380000000000000000000000000000649800000004821500000000000000000000000000000568600000006498000000000000000001292500000000676202211                                                                                                                             
02GACE971027MMCRHR04GACE971027ID701581590GARCIA                                            CHAVEZ                                            ERIKA LIZBETH                                     075302022010320220103202206151 01505900000000000826000000000000000000109150000000000000000027288000000359900000000000000000000000000000590000000004377800000000000000000000000000000516300000005900000000000000000001173500000000614202211                                                                                                                             
02CAGC740318HMCSZS05CAGC7403189C800573975CASTILLO                                          GUZMAN                                            CESAR                                             075542022010320220103202206150 01502629060000000000000000000000000000000000000000000000000012159000000160370000000000000000000000000000262910000001950800000000000000000000000000000230000000002629000000000000000000522900000000273202211                                                                                                                             
02LOMM590303HMNPNG00LOMM59030315400080123LOPEZ                                             MONTUFAR                                          MIGUEL                                            075302022010320220103202206151 01507695000000001077300000000000000000142360000000000000000035589000000469400000000000000000000000000000769500000005709700000000000000000000000000000673300000007695000000000000000001530500000000800202211                                                                                                                             
02GUNM820303HMCTJS04GUNM82030366901593736GUTIERREZ                                         NAJERA                                            MISRAIM IGNACIO                                   075302022010320220103202204151 01504449200000000622900000000000000000082310000000000000000020578000000271400000000000000000000000000000444920000003301300000000000000000000000000000389300000004449000000000000000000884900000000463202211                                                                                                                             
02GAMA980421HMCRNB00GAMA980421GK501549768GARCIA                                            MONROY                                            ABRAHAM                                           075302022010320220103202206151 01502736000000000383000000000000000000050620000000000000000012654000000166900000000000000000000000000000273600000002030100000000000000000000000000000239400000002736000000000000000000544200000000285202211                                                                                                                             
02DOLE740915HDFMDD03DOLE74091558000597360DOMINGUEZ                                         LEDEZMA                                           EDGAR                                             075302022031620220316202207150 01511670000000000000000000000000000000000000000000000000000053974000000711870000000000000000000000000001167000000008659100000000000000000000000000001021100000011670000000000000000002321200000001214202211                                                                                                                             
02MAPR680704HMCRSF04MAPR680704LK301161861MARQUEZ                                           PASTRANA                                          REFUGIO JAVIER                                    075542022010320220103202206151 01502629060000000368100000000000000000048640000000000000000012159000000160370000000000000000000000000000262910000001950800000000000000000000000000000230000000002629000000000000000000522900000000273202211                                                                                                                             
02TACA840613HMCPNN08TACA840613C5101264378TAPIA                                             CONTRERAS                                         ANTONIO GUADALUPE                                 075302022010320220103202206151 01502629060000000368100000000000000000048640000000000000000012159000000160370000000000000000000000000000262910000001950800000000000000000000000000000230000000002629000000000000000000522900000000273202211                                                                                                                             
02CUPL980130HMCRRS04CUPL980130UH301587244CRUZ                                              PEREZ                                             LUIS FERNANDO                                     075302022010320220103202206151 01504275000000000598500000000000000000079090000000000000000019772000000260780000000000000000000000000000427500000003172100000000000000000000000000000374100000004275000000000000000000850300000000445202211                                                                                                                             
02RUCZ920324MDFZHR07RUCZ920324MJ101561681RUIZ                                              CHINO                                             ZAIRA BEYID                                       075302021080920210809202112311 01504767000000000667400000000000000000088190000000000000000022047000000290790000000000000000000000000000476700000003537100000000000000000000000000000417100000004767000000000000000000948200000000496202211                                                                                                                             
02RAGJ640815HMCMRQ01RAGJ64081563101593806RAMIREZ                                           GARCIA                                            JOAQUIN                                           075302022010320220103202206151 01502629060000000368100000000000000000048640000000000000000012159000000160370000000000000000000000000000262910000001950800000000000000000000000000000230000000002629000000000000000000522900000000273202211                                                                                                                             
02GARB780801MMCRDL03GARB78080183200620976GARDUÑO                                           RODRIGUEZ                                         BLANCA ANGELICA                                   075542021080920210809202112311 01507293750000001021100000000000000000134930000000000000000033734000000444920000000000000000000000000000729380000005412000000000000000000000000000000638200000007294000000000000000001450700000000759202211                                                                                                                             
02LOXR780430HNEPXN01LORE7804302F900807762LOPEZ                                                                                               RENE                                              075542021080920210809202112311 01505251500000000735200000000000000000097150000000000000000024288000000320340000000000000000000000000000525150000003896600000000000000000000000000000459500000005252000000000000000001044500000000546202211                                                                                                                             
02PEPN900820MDFRVL01PEPN9008204R301264377PEREZ                                             PAVON                                             NELLY VIRIDIANA                                   075302022010320220103202206151 01502629060000000368100000000000000000048640000000000000000012159000000160370000000000000000000000000000262910000001950800000000000000000000000000000230000000002629000000000000000000522900000000273202211                                                                                                                             
02SAMA921029HMCNNB09SAMA921029J3401252419SANCHEZ                                           MONDRAGON                                         ABDIAS NATANAHEL                                  075302022010320220103202206151 01505900000000000826000000000000000000109150000000000000000027288000000359900000000000000000000000000000590000000004377800000000000000000000000000000516300000005900000000000000000001173500000000614202211                                                                                                                             
02GOXC690426MNELXM06GOCA6904269R501570220GOILA                                                                                               CAMELIA CRENGUTA                                  075302021080920210809202112311 01504959750000000694400000000000000000091760000000000000000022939000000302540000000000000000000000000000495980000003680100000000000000000000000000000434000000004960000000000000000000986500000000516202211                                                                                                                             
02BARM720527MDFLMR08BARM720527N8000454641BALCAZAR                                          ROMERO                                            MARINA                                            075542022010320220103202206151 01502629060000000368100000000000000000048640000000000000000012159000000160370000000000000000000000000000262910000001950800000000000000000000000000000230000000002629000000000000000000522900000000273202211                                                                                                                             
02EABG661202MMCSCR09EABG661202GT500238210ESCAMILLA                                         BECERRIL                                          GEORGINA                                          075302022030120220301202206151 01502907000000000407000000000000000000053780000000000000000013445000000177330000000000000000000000000000290700000002157000000000000000000000000000000254400000002907000000000000000000578200000000302202211                                                                                                                             
02VECA760304HMCLRD01VECA760304HD701157635VELAZQUEZ                                         CORRAL                                            ADRIAN                                            075542021080920210809202112311 01503501000000000490100000000000000000064770000000000000000016192000000213560000000000000000000000000000350100000002597700000000000000000000000000000306300000003501000000000000000000696300000000364202211                                                                                                                             
