010103000000120221109GEM850101BJ3SECRETARIA DE CULTURA PLANTILLA EVENTUAL                                                                      10094                                                                                                                                                                                                                                                                                                                                                                                                                  
02CATP980824MMCSNL08CATP980824QD701609128CASTILLO                                          TENORIO                                           MARIA PAULINA                                     075302022031620220316202207151 01507622500000001067200000000000000000141020000000000000000035254000000464970000000000000000000000000000762250000005655900000000000000000000000000000667000000007623000000000000000001516100000000793202221                                                                                                                             
02SEOF981210HMCRRR03SEOF981210MEA01584639SERRANO                                           OROZCO                                            FERNANDO ALONSO                                   035302022070120220701202212151 01504425000000000619500000000000000000081860000000000000000020466000000269930000000000000000000000000000442500000003283400000000000000000000000000000387200000004425000000000000000000880100000000460202221                                                                                                                             
02OACE700221MMCCNL02OACE7002218M600297123OCAMPO                                            CONTRERAS                                         ELVIA HERLINDA                                    075542015070120180703201812150 01502629060000000000000000000000000000000000000000000000000012159000000160370000000000000000000000000000262910000001950800000000000000000000000000000230000000002629000000000000000000522900000000273202221                                                                                                                             
02PAAN770603MMCCVR01PAAN7706034Q300589726PACHECO                                           AVILES                                            NORMA ANGELICA                                    075542015070120180703201812150 01502629060000000000000000000000000000000000000000000000000012159000000160370000000000000000000000000000262910000001950800000000000000000000000000000230000000002629000000000000000000522900000000273202221                                                                                                                             
02BARM720527MDFLMR08BARM720527N8000454641BALCAZAR                                          ROMERO                                            MARINA                                            075542022070120220701202212151 01502629060000000368100000000000000000048640000000000000000012159000000160370000000000000000000000000000262910000001950800000000000000000000000000000230000000002629000000000000000000522900000000273202221                                                                                                                             
02MAFA780529HMCRLR06MAFA7805297A900745796MARTINEZ                                          FLORES                                            JOSE AURELIO                                      075302022070120220701202212151 01507965000000001115100000000000000000147350000000000000000036838000000485870000000000000000000000000000796500000005910000000000000000000000000000000696900000007965000000000000000001584200000000828202221                                                                                                                             
02AAMA520424HMNLRD16AAMA520424CB901162842ALVAREZ                                           MARINEZ                                           ADALBERTO                                         075542022070120220701202212151 01502629060000000368100000000000000000048640000000000000000012159000000160370000000000000000000000000000262910000001950800000000000000000000000000000230000000002629000000000000000000522900000000273202221                                                                                                                             
02COAJ990409HMCTGS03COAJ990409VD901619661COTIJA                                            AGUILAR                                           JESUS                                             075302022071820220718202212311 01504573500000000640300000000000000000084610000000000000000021152000000278980000000000000000000000000000457350000003393500000000000000000000000000000400200000004574000000000000000000909700000000476202221                                                                                                                             
02COCG020703HMCNSBA1COCG020703BZ101582962CONTRERAS                                         CASTILLO                                          GABRIEL EMMANUEL                                  075302022070120220701202212151 01506283500000000879700000000000000000116240000000000000000029061000000383290000000000000000000000000000628350000004662400000000000000000000000000000549800000006284000000000000000001249800000000653202221                                                                                                                             
02TAXN680711MNESXN06TANU6807115Y400554512TSHAVRSHYAN                                                                                         NUNE                                              075542022081620220816202212311 01507927400000001109800000000000000000146660000000000000000036664000000483570000000000000000000000000000792740000005882100000000000000000000000000000693600000007927000000000000000001576800000000824202221                                                                                                                             
02RAMC911001HDFMDS08RAMC9110014T501581592RAMIREZ                                           MEDINA                                            CESAR OMAR                                        075302022070120220701202212151 01506283500000000879700000000000000000116240000000000000000029061000000383290000000000000000000000000000628350000004662400000000000000000000000000000549800000006284000000000000000001249800000000653202221                                                                                                                             
02AEAA931226HMCLGR04AEAA931226JA501546706ALEJANDRE                                         AGUILAR                                           AARON ALEJANDRO                                   075302022070120220701202212151 01502832000000000396500000000000000000052390000000000000000013098000000172750000000000000000000000000000283200000002101300000000000000000000000000000247800000002832000000000000000000563300000000295202221                                                                                                                             
02EICF821030MMCNNN07EICF8210301H900627822ENRIQUEZ                                          CANO                                              FANY GUADALUPE                                    075302022070120220701202212151 01507522500000001053200000000000000000139170000000000000000034792000000458870000000000000000000000000000752250000005581700000000000000000000000000000658200000007523000000000000000001496200000000782202221                                                                                                                             
02NAGA970710MMCVNL09NAGA970710QC601617546NAVA                                              GONZALEZ                                          ALITZEL GWYNETH                                   075302022070120220701202212151 01504425000000000619500000000000000000081860000000000000000020466000000269930000000000000000000000000000442500000003283400000000000000000000000000000387200000004425000000000000000000880100000000460202221                                                                                                                             
02MOGL781130MDFRNR00MOGL781130MW601549783MORELOS                                           GONZALEZ                                          LOURDES NATALIA                                   075302022081620220816202212311 01507622500000001067200000000000000000141020000000000000000035254000000464970000000000000000000000000000762250000005655900000000000000000000000000000667000000007623000000000000000001516100000000793202221                                                                                                                             
02CUOI840408HDFRLS09CUOI8404084W000983683CRUZ                                              OLALDE                                            ISRAEL                                            075302022081620220816202212311 01502629060000000368100000000000000000048640000000000000000012159000000160370000000000000000000000000000262910000001950800000000000000000000000000000230000000002629000000000000000000522900000000273202221                                                                                                                             
02VIOM950523MMCVRY06VIOM950523K2001584692VIVAR                                             OROZCO                                            MAYEL ANDREA                                      075302022070120220701202212151 01503186000000000446000000000000000000058940000000000000000014735000000194350000000000000000000000000000318600000002364000000000000000000000000000000278800000003186000000000000000000633700000000331202221                                                                                                                             
02TEEX020103MMCNSMA5TEEX020103RN501577339TENORIO                                           ESPINAL                                           XIMENA ELIZABETH                                  075302022070120220701202212151 01506726000000000941600000000000000000124430000000000000000031108000000410290000000000000000000000000000672600000004990700000000000000000000000000000588500000006726000000000000000001337800000000700202221                                                                                                                             
02RAMV581028HDFMRC01RAMV5810283G900620213RAMIREZ                                           MORENO                                            VICENTE FRANCISCO                                 075542015070120180703201812151 01504725000000000661500000000000000000087410000000000000000021853000000288230000000000000000000000000000472500000003506000000000000000000000000000000413400000004725000000000000000000939800000000491202221                                                                                                                             
02ROBV820728HMCSRC03ROBV820728TLA01561675DE LA ROSA                                        BARRETO                                           VICTOR HUGO                                       075302022081620220816202212311 01504317300000000604400000000000000000079870000000000000000019968000000263360000000000000000000000000000431730000003203400000000000000000000000000000377800000004317000000000000000000858700000000449202221                                                                                                                             
02SAMA921029HMCNNB09SAMA921029J3401252419SANCHEZ                                           MONDRAGON                                         ABDIAS NATANAHEL                                  075302022070120220701202212151 01505900000000000826000000000000000000109150000000000000000027288000000359900000000000000000000000000000590000000004377800000000000000000000000000000516300000005900000000000000000001173500000000614202221                                                                                                                             
02EOPA900806MGTSRD05EOPA900806QJ401593745ESCOBAR                                           PEREZ                                             AIDA HORTENSIA                                    075302022070120220701202212151 01504425000000000619500000000000000000081860000000000000000020466000000269930000000000000000000000000000442500000003283400000000000000000000000000000387200000004425000000000000000000880100000000460202221                                                                                                                             
02TAVP800813HDFMZB07TAVP800813A2501184923TAMES                                             VAZQUEZ                                           PABLO                                             075302022081620220816202212311 01507012700000000981800000000000000000129730000000000000000032434000000427770000000000000000000000000000701270000005203400000000000000000000000000000613600000007013000000000000000001394800000000729202221                                                                                                                             
02FOHC721204MMCLRL07FOHC72120415601161859FLORES                                            HERNANDEZ                                         CLAUDIA                                           075542022070120220701202212151 01502629060000000368100000000000000000048640000000000000000012159000000160370000000000000000000000000000262910000001950800000000000000000000000000000230000000002629000000000000000000522900000000273202221                                                                                                                             
02MAMX891022MMCRXC09MAMX891022ANA01162857MARTINEZ                                          MUÑOZ                                             XOCHITL CYNTHIA                                   075542022070120220701202212151 01502655000000000371700000000000000000049120000000000000000012279000000161960000000000000000000000000000265500000001970000000000000000000000000000000232300000002655000000000000000000528100000000276202221                                                                                                                             
02CUCM930502MMCTPR07CUCM930502TH801183838CUATE                                             CAPULIN                                           MARICRUZ                                          075302022070120220701202212151 01507611000000001065500000000000000000140800000000000000000035201000000464270000000000000000000000000000761100000005647400000000000000000000000000000666000000007611000000000000000001513800000000792202221                                                                                                                             
02IAML890130MDFSRC09IAML890130AN901617541ISLAS                                             MERCADO                                           LUCIA SELENE                                      035302022070120220701202212151 01502629060000000368100000000000000000048640000000000000000012159000000160370000000000000000000000000000262910000001950800000000000000000000000000000230000000002629000000000000000000522900000000273202221                                                                                                                             
02GOOA871010HDFNRL05GOOA87101028001282783GONZALEZ                                          ORTIZ                                             ALAN                                              075302022081620220816202212311 01502629060000000368100000000000000000048640000000000000000012159000000160370000000000000000000000000000262910000001950800000000000000000000000000000230000000002629000000000000000000522900000000273202221                                                                                                                             
02CAGM890601HMCZDR06CAGM890601HS301577338CAZADO                                            GUADARRAMA                                        MARIO                                             075302021080920210816202212311 01507012700000000981800000000000000000129730000000000000000032434000000427770000000000000000000000000000701270000005203400000000000000000000000000000613600000007013000000000000000001394800000000729202221                                                                                                                             
02MALS911106MMCRZN02MALS911106C6A01593787MARTINEZ                                          LAZO                                              SANDRA SOFIA                                      075302022070120220701202212151 01502629060000000368100000000000000000048640000000000000000012159000000160370000000000000000000000000000262910000001950800000000000000000000000000000230000000002629000000000000000000522900000000273202221                                                                                                                             
02PAVR930719HDFRLY01PAVR930719RM201593799PAREDES                                           VELASCO                                           RAYMUNDO                                          075302022070120220701202212151 01502629060000000368100000000000000000048640000000000000000012159000000160370000000000000000000000000000262910000001950800000000000000000000000000000230000000002629000000000000000000522900000000273202221                                                                                                                             
02MUSC710715MMCCNR02MUSC710715E1800310845MUCIÑO                                            SANDOVAL                                          MARIA DEL CARMEN                                  075302022070120220701202212151 01502629060000000368100000000000000000048640000000000000000012159000000160370000000000000000000000000000262910000001950800000000000000000000000000000230000000002629000000000000000000522900000000273202221                                                                                                                             
02RODD800905HMNMZR06RODD800905CV500919002ROMERO                                            DIAZ                                              DARIO                                             075542022070120220701202212151 01507611000000001065500000000000000000140800000000000000000035201000000464270000000000000000000000000000761100000005647400000000000000000000000000000666000000007611000000000000000001513800000000792202221                                                                                                                             
02JICI900327MMCMRR00JICI900327RR400968436JIMENEZ                                           CORDOVA                                           IRMA                                              075302022081620220816202212151 01504867500000000681500000000000000000090050000000000000000022512000000296920000000000000000000000000000486750000003611700000000000000000000000000000425900000004868000000000000000000968100000000506202221                                                                                                                             
02CURC860503HMCVSR05CURC860503IX300936447CUEVAS                                            ROSALES                                           CRISTOPHER                                        075302022070120220701202212151 01507611000000001065500000000000000000140800000000000000000035201000000464270000000000000000000000000000761100000005647400000000000000000000000000000666000000007611000000000000000001513800000000792202221                                                                                                                             
02COGD971126MMCLRN14COGD971126MY701622821COLIN                                             GARCIA                                            DANIELA                                           075302022090120220901202212311 01507317600000001024500000000000000000135380000000000000000033844000000446370000000000000000000000000000731760000005429700000000000000000000000000000640300000007318000000000000000001455500000000761202221                                                                                                                             
02CAVS930820MDFLLM02CAVS930820VB001593735CLARA                                             VALENTIN                                          SAMANTHA                                          075302022070120220701202212151 01502629060000000368100000000000000000048640000000000000000012159000000160370000000000000000000000000000262910000001950800000000000000000000000000000230000000002629000000000000000000522900000000273202221                                                                                                                             
02MACV530711MMCRLR07MACV530711U1501252429MARTINEZ                                          CALDERON                                          VERONICA                                          075302022070120220701202212151 01502629060000000368100000000000000000048640000000000000000012159000000160370000000000000000000000000000262910000001950800000000000000000000000000000230000000002629000000000000000000522900000000273202221                                                                                                                             
02MAPR680704HMCRSF04MAPR680704LK301161861MARQUEZ                                           PASTRANA                                          REFUGIO JAVIER                                    075542022070120220701202212151 01502629060000000368100000000000000000048640000000000000000012159000000160370000000000000000000000000000262910000001950800000000000000000000000000000230000000002629000000000000000000522900000000273202221                                                                                                                             
02AUOA920610HDFGRL03AUOA9206108UA01617561AGUAYO                                            ORTIZ                                             ALEJANDRO                                         075302022070120220701202212311 01507622500000001067200000000000000000141020000000000000000035254000000464970000000000000000000000000000762250000005655900000000000000000000000000000667000000007623000000000000000001516100000000793202221                                                                                                                             
02PERK921214MMCXDR06PERK921214UZ401210889PEÑA                                              RUEDA                                             KAREN VICTORIA                                    015542022071820220718202212311 01503963700000000554900000000000000000073330000000000000000018332000000241790000000000000000000000000000396370000002941100000000000000000000000000000346800000003964000000000000000000788400000000412202221                                                                                                                             
02FAMF750513MDFLRL01FAMF750513LD001252433FALCON                                            MORALES                                           FLOR ELIZABETH                                    075302022070120220701202212151 01507611000000001065500000000000000000140800000000000000000035201000000464270000000000000000000000000000761100000005647400000000000000000000000000000666000000007611000000000000000001513800000000792202221                                                                                                                             
02GOXC690426MNELXM06GOCA6904269R501570220GOILA                                                                                               CAMELIA CRENGUTA                                  075302022081620220816202212311 01505183300000000725700000000000000000095890000000000000000023973000000316180000000000000000000000000000518330000003846000000000000000000000000000000453500000005183000000000000000001031000000000539202221                                                                                                                             
02SAGP900510MMCNRT02SAGP90051083A01617559SANCHEZ                                           GARCIA                                            PATSY IVETH                                       075302022070120220701202212151 01502629060000000368100000000000000000048640000000000000000012159000000160370000000000000000000000000000262910000001950800000000000000000000000000000230000000002629000000000000000000522900000000273202221                                                                                                                             
02VIMO810420HMCLRS06VIMO8104207H500851458VILLEGAS                                          MIRANDA                                           OSCAR                                             075542022091620220916202212311 01505183300000000725700000000000000000095890000000000000000023973000000316180000000000000000000000000000518330000003846000000000000000000000000000000453500000005183000000000000000001031000000000539202221                                                                                                                             
02CAFM880927HDFRRN08CAFM8809274Q201235570CARMONA                                           FRANCO                                            MANUEL                                            075302022070120220701202212151 01502629060000000368100000000000000000048640000000000000000012159000000160370000000000000000000000000000262910000001950800000000000000000000000000000230000000002629000000000000000000522900000000273202221                                                                                                                             
02GUSL601229HDFRNS01GUSL601229R1600468723GUERRERO                                          SANDOVAL                                          LUIS ARTURO                                       075542022081620220816202212310 01503963700000000000000000000000000000000000000000000000000018332000000241790000000000000000000000000000396370000002941100000000000000000000000000000346800000003964000000000000000000788400000000412202221                                                                                                                             
02ROAL920828HMCJRN06ROAL920828GA401570568ROJAS                                             ARMENTA                                           LEONARDO                                          075302022070120220701202212151 01502629060000000368100000000000000000048640000000000000000012159000000160370000000000000000000000000000262910000001950800000000000000000000000000000230000000002629000000000000000000522900000000273202221                                                                                                                             
02MOOA800827MDFRRZ09MOOA800827NU401530731MORALES                                           ORRANTIA                                          AZALEA HAYDEE                                     075302022070120220701202212151 01502629060000000368100000000000000000048640000000000000000012159000000160370000000000000000000000000000262910000001950800000000000000000000000000000230000000002629000000000000000000522900000000273202221                                                                                                                             
02PEEA800621HMCDSL07PEEA8006213I801224005PEDROZA                                           ESTRADA                                           ALEJANDRO                                         075302022070120220701202212151 01502629060000000368100000000000000000048640000000000000000012159000000160370000000000000000000000000000262910000001950800000000000000000000000000000230000000002629000000000000000000522900000000273202221                                                                                                                             
02MASF740517MDFTNB05MASF740517QR700621054MATAMOROS                                         SANCHEZ                                           FABIOLA PILAR                                     075542022081620220816202212311 01503658800000000512200000000000000000067690000000000000000016922000000223190000000000000000000000000000365880000002714800000000000000000000000000000320100000003659000000000000000000727700000000381202221                                                                                                                             
02MEGJ800613MMCNRN02MEGJ800613MB101614285MENDIOLA                                          GARCIA                                            JOANNA ELIZABETH                                  075302022051620220516202207151 01507012700000000981800000000000000000129730000000000000000032434000000427770000000000000000000000000000701270000005203400000000000000000000000000000613600000007013000000000000000001394800000000729202221                                                                                                                             
02OAVF880201HMCLLR01OAVF880201QJ301162513OLASCOAGA                                         VALLADARES                                        FERNANDO                                          075542022081620220816202212311 01503963700000000554900000000000000000073330000000000000000018332000000241790000000000000000000000000000396370000002941100000000000000000000000000000346800000003964000000000000000000788400000000412202221                                                                                                                             
02ROGM500614HDFDTD02ROGM500614JJ801587228RODRIGUEZ                                         GUTIERREZ                                         MODESTO AGUSTIN                                   075302022070120220701202212151 01510000500000001400100000000000000000185010000000000000000046252000000610030000000000000000000000000001000050000007420400000000000000000000000000000875000000010001000000000000000001989100000001040202221                                                                                                                             
02SASA960416MMCNNN04SASA9604166E001584632SANCHEZ                                           SANCHEZ                                           ANA AIME                                          075302022070120220701202212151 01502629060000000368100000000000000000048640000000000000000012159000000160370000000000000000000000000000262910000001950800000000000000000000000000000230000000002629000000000000000000522900000000273202221                                                                                                                             
02CUAJ900619HMCRGN04CUAJ900619FU701152577CRUZ                                              AGUILAR                                           JUAN JOSE                                         075542022081620220816202212311 01503049000000000426900000000000000000056410000000000000000014102000000185990000000000000000000000000000304900000002262400000000000000000000000000000266800000003049000000000000000000606400000000317202221                                                                                                                             
02AEGS840504MDFLNL09AEGS840504UU901203435ALEMAN                                            GONZALEZ DUHART                                   SILVIA                                            075302022070120220701202212151 01507611000000001065500000000000000000140800000000000000000035201000000464270000000000000000000000000000761100000005647400000000000000000000000000000666000000007611000000000000000001513800000000792202221                                                                                                                             
02MADH760803HPLRGR08MADH760803AH301235513MARTINEZ                                          DIEGO                                             HERMELO                                           075302022070120220701202212151 01502629060000000368100000000000000000048640000000000000000012159000000160370000000000000000000000000000262910000001950800000000000000000000000000000230000000002629000000000000000000522900000000273202221                                                                                                                             
02MAVE830424MMCDLV04MAVE83042435401228165MADERO                                            VILCHIS                                           EVA ALEJANDRA                                     075302022070120220701202212151 01507965000000001115100000000000000000147350000000000000000036838000000485870000000000000000000000000000796500000005910000000000000000000000000000000696900000007965000000000000000001584200000000828202221                                                                                                                             
02JIVE640715HMCMLN07JIVE640715H6600586890JIMENEZ                                           VALENCIA                                          ENRIQUE EDUARDO                                   075542022070120220701202207151 01502629060000000368100000000000000000048640000000000000000012159000000160370000000000000000000000000000262910000001950800000000000000000000000000000230000000002629000000000000000000522900000000273202221                                                                                                                             
02HECF750611HMCRSR09HECF75061194400498906HERNANDEZ                                         CASTILLO                                          FERDINANDO RICARDO                                075302022070120220701202212151 01504248000000000594700000000000000000078590000000000000000019647000000259130000000000000000000000000000424800000003152000000000000000000000000000000371700000004248000000000000000000844900000000442202221                                                                                                                             
02GUTE720901HMCTVD04GUTE720901Q4000851411GUTIERREZ                                         TAVERA                                            EDGAR ARTURO                                      075542022081620220816202212311 01504573500000000640300000000000000000084610000000000000000021152000000278980000000000000000000000000000457350000003393500000000000000000000000000000400200000004574000000000000000000909700000000476202221                                                                                                                             
02FOMP940905MMCLJL05FOMP94090534901502384FLORES                                            MEJIA                                             MARIA DEL PILAR                                   075302022081620220816202212311 01504649400000000650900000000000000000086010000000000000000021503000000283610000000000000000000000000000464940000003449900000000000000000000000000000406800000004649000000000000000000924800000000484202221                                                                                                                             
02VELF711205HMCLRR02VELF711205Q8500513287VELASCO                                           LARA                                              FRANCISCO FIDEL                                   075302022070120220701202212150 01502629060000000000000000000000000000000000000000000000000012159000000160370000000000000000000000000000262910000001950800000000000000000000000000000230000000002629000000000000000000522900000000273202221                                                                                                                             
02GACE971027MMCRHR04GACE971027ID701581590GARCIA                                            CHAVEZ                                            ERIKA LIZBETH                                     075302022070120220701202212151 01505900000000000826000000000000000000109150000000000000000027288000000359900000000000000000000000000000590000000004377800000000000000000000000000000516300000005900000000000000000001173500000000614202221                                                                                                                             
02PABA830914MDFLTL05PABA8309141Q601162898PALAFOX                                           BAUTISTA                                          ALMA ROCIO                                        075542022070120220701202212151 01502629060000000368100000000000000000048640000000000000000012159000000160370000000000000000000000000000262910000001950800000000000000000000000000000230000000002629000000000000000000522900000000273202221                                                                                                                             
02RUPA271230HMCZRN07RUPA271230A8000039867RUIZ                                              PEREZ                                             ANTONIO                                           075542022070120220701202212151 01510974000000001536400000000000000000203020000000000000000050755000000669410000000000000000000000000001097400000008142700000000000000000000000000000960200000010974000000000000000002182700000001141202221                                                                                                                             
02GOLJ570407HSPNPN05GOLJ570407K8801609012GONZALEZ                                          LOPEZ                                             JUAN                                              075302022031620220316202207151 01507622500000001067200000000000000000141020000000000000000035254000000464970000000000000000000000000000762250000005655900000000000000000000000000000667000000007623000000000000000001516100000000793202221                                                                                                                             
02RILA710129MDFVNL09RILA71012932900854693RIVERA                                            LEON                                              ALMA IVONNE                                       075542022070120220701202212151 01502629060000000368100000000000000000048640000000000000000012159000000160370000000000000000000000000000262910000001950800000000000000000000000000000230000000002629000000000000000000522900000000273202221                                                                                                                             
02LOXR780430HNEPXN01LORE7804302F900807762LOPEZ                                                                                               RENE                                              075542022081620220816202212311 01505488200000000768300000000000000000101530000000000000000025383000000334780000000000000000000000000000548820000004072200000000000000000000000000000480200000005488000000000000000001091600000000571202221                                                                                                                             
02ROAV910625MMCDVR02ROAV910625CE701563010RODRIGUEZ                                         AVILA                                             VIRIDIANA ITZEL                                   075302022070120220701202212151 01503894000000000545200000000000000000072040000000000000000018010000000237530000000000000000000000000000389400000002889300000000000000000000000000000340700000003894000000000000000000774500000000405202221                                                                                                                             
02BAEJ921210HDFRSL01BAEJ9212101F901584647BARRERA                                           ESTRADA                                           JULIO CESAR                                       075302022070120220701202212151 01502655000000000371700000000000000000049120000000000000000012279000000161960000000000000000000000000000265500000001970000000000000000000000000000000232300000002655000000000000000000528100000000276202221                                                                                                                             
02AAFM751201HMCLBR09AAFM751201KK800620219ALVAREZ                                           FABELA                                            MARTIN LEONARDO                                   075542015070120180703201812151 01502629060000000368100000000000000000048640000000000000000012159000000160370000000000000000000000000000262910000001950800000000000000000000000000000230000000002629000000000000000000522900000000273202221                                                                                                                             
02EUMG981210MMCNRD07EUMG981210QL601584646ENGUILO                                           MARTINEZ                                          GUADALUPE ABIGAIL                                 075302022070120220701202212151 01506637500000000929300000000000000000122790000000000000000030698000000404890000000000000000000000000000663750000004925000000000000000000000000000000580800000006638000000000000000001320200000000690202221                                                                                                                             
02JUMT781021MMCRRR08JUMT781021UQ701163098JUAREZ                                            MARTINEZ                                          MARIA TERESA                                      075542022070120220701202212151 01502629060000000368100000000000000000048640000000000000000012159000000160370000000000000000000000000000262910000001950800000000000000000000000000000230000000002629000000000000000000522900000000273202221                                                                                                                             
02VEVC771219HMCLLR05VEVC771219T9A00790719VELAZQUEZ                                         VILCHIS                                           CARLOS                                            075302022070120220701202212151 01507611000000001065500000000000000000140800000000000000000035201000000464270000000000000000000000000000761100000005647400000000000000000000000000000666000000007611000000000000000001513800000000792202221                                                                                                                             
02JAGG801022MDFSRD07JAGG8010221E501162855JASPEADO                                          GARCIA                                            MARIA GUADALUPE                                   075302022070120220701202212151 01502629060000000368100000000000000000048640000000000000000012159000000160370000000000000000000000000000262910000001950800000000000000000000000000000230000000002629000000000000000000522900000000273202221                                                                                                                             
02MOLM561121HMCRPR03MOLM561121GEA01161873MORALES                                           LOPEZ                                             MAURO                                             075542022070120220701202212151 01502629060000000368100000000000000000048640000000000000000012159000000160370000000000000000000000000000262910000001950800000000000000000000000000000230000000002629000000000000000000522900000000273202221                                                                                                                             
02AAPP680212HDFLRR08AAPP680212DK500743484ALVAREZ                                           PEREZ                                             PERCIVAL                                          075302021080920220816202212311 01505041600000000705800000000000000000093270000000000000000023317000000307540000000000000000000000000000504160000003740900000000000000000000000000000441100000005042000000000000000001002800000000524202221                                                                                                                             
02WAXC760501HNEHXL07WACL760501Q8000541258WHATLEY                                                                                             CLIVE JAMES                                       075542022081620220816202212311 01503963700000000554900000000000000000073330000000000000000018332000000241790000000000000000000000000000396370000002941100000000000000000000000000000346800000003964000000000000000000788400000000412202221                                                                                                                             
02GODO770301HMCMZM01GODO770301MW300620986GOMEZ                                             DIAZ                                              OMAR                                              075542022081620220816202212311 01507927400000001109800000000000000000146660000000000000000036664000000483570000000000000000000000000000792740000005882100000000000000000000000000000693600000007927000000000000000001576800000000824202221                                                                                                                             
02AOCP831221HMCYSD07AOCP831221TF701622837AYLLON                                            CASTAÑO                                           PEDRO                                             075302022090120220901202212311 01509451900000001323300000000000000000174860000000000000000043715000000576570000000000000000000000000000945190000007013300000000000000000000000000000827000000009452000000000000000001880000000000983202221                                                                                                                             
02VAMG910214HMCRRB08VAMG9102147Y401231465VARGAS                                            MIRANDA                                           GABRIEL                                           075302022070120220701202212151 01507611000000001065500000000000000000140800000000000000000035201000000464270000000000000000000000000000761100000005647400000000000000000000000000000666000000007611000000000000000001513800000000792202221                                                                                                                             
02LIRV961126HMCMMC01LIRV961126K6A01584699LIMA                                              RAMIREZ                                           VICTOR MANUEL                                     075302022070120220701202212151 01502629060000000368100000000000000000048640000000000000000012159000000160370000000000000000000000000000262910000001950800000000000000000000000000000230000000002629000000000000000000522900000000273202221                                                                                                                             
02CUME500805HMCRRM02CUME500805KX400232890CRUZ                                              MARCOS                                            EMIGDIO                                           075542022070120220701202212150 01502629060000000000000000000000000000000000000000000000000012159000000160370000000000000000000000000000262910000001950800000000000000000000000000000230000000002629000000000000000000522900000000273202221                                                                                                                             
02SAJD980509MMCLMN09SAJD9805092Q401584706SALAZAR                                           JAIMES                                            DANIELA DESSIRE                                   075302022070120220701202212151 01503274500000000458400000000000000000060580000000000000000015145000000199740000000000000000000000000000327450000002429700000000000000000000000000000286500000003275000000000000000000651300000000341202221                                                                                                                             
02GUNM820303HMCTJS04GUNM82030366901593736GUTIERREZ                                         NAJERA                                            MISRAIM IGNACIO                                   075302022081620220816202212311 01504649400000000650900000000000000000086010000000000000000021503000000283610000000000000000000000000000464940000003449900000000000000000000000000000406800000004649000000000000000000924800000000484202221                                                                                                                             
02EABG661202MMCSCR09EABG661202GT500238210ESCAMILLA                                         BECERRIL                                          GEORGINA                                          075302022070120220701202212151 01503009000000000421300000000000000000055670000000000000000013917000000183550000000000000000000000000000300900000002232700000000000000000000000000000263300000003009000000000000000000598500000000313202221                                                                                                                             
02SAPI890814HDFNSV05SAPI89081448601184147SANCHEZ                                           POSADA                                            IVAN OSWALDO                                      075302022070120220701202212151 01502629060000000368100000000000000000048640000000000000000012159000000160370000000000000000000000000000262910000001950800000000000000000000000000000230000000002629000000000000000000522900000000273202221                                                                                                                             
02GOZJ810913HDFNRS04GOZJ810913Q3A01621661GONZALEZ                                          ZARATE                                            JESUS EFREN                                       075302022081620220816202212311 01508537200000001195200000000000000000157940000000000000000039485000000520770000000000000000000000000000853720000006334600000000000000000000000000000747000000008537000000000000000001698000000000888202221                                                                                                                             
02COLD740608HDFLPV08COLD7406087E500479462COLIN                                             LOPEZ                                             DAVID ALEJANDRO                                   075302022081620220816202212311 01506309900000000883400000000000000000116730000000000000000029183000000384900000000000000000000000000000630990000004681900000000000000000000000000000552100000006310000000000000000001255000000000656202221                                                                                                                             
02LOME880511HMCPND02LOME88051178A00781520LOPEZ                                             MONTENEGRO                                        JOSE EDUARDO                                      075542022081620220816202212311 01506098000000000853700000000000000000112810000000000000000028203000000371980000000000000000000000000000609800000004524700000000000000000000000000000533600000006098000000000000000001212900000000634202221                                                                                                                             
02RALR940302MDFMPC04RALR940302JQ901242771RAMOS                                             LOPEZ                                             MARIA DEL ROCIO                                   075302022041820220418202207151 01503963700000000554900000000000000000073330000000000000000018332000000241790000000000000000000000000000396370000002941100000000000000000000000000000346800000003964000000000000000000788400000000412202221                                                                                                                             
02HESM751114HDFRLR05HESM751114B2900639791HERNANDEZ                                         SOLORZANO                                         MARIANO                                           075542022081620220816202212311 01504573500000000640300000000000000000084610000000000000000021152000000278980000000000000000000000000000457350000003393500000000000000000000000000000400200000004574000000000000000000909700000000476202221                                                                                                                             
02HEMC841024HMCRRR04HEMC841024UN700704031HERNANDEZ                                         MARTINEZ                                          CARLOS                                            075542022081620220816202212311 01512196000000001707400000000000000000225630000000000000000056407000000743960000000000000000000000000001219600000009049400000000000000000000000000001067200000012196000000000000000002425800000001268202221                                                                                                                             
02VEMA690329HMCLRR06VEMA6903299B100245353VELASCO                                           MORALES                                           ARMANDO                                           075542022081620220816202212310 01503321000000000000000000000000000000000000000000000000000015360000000202580000000000000000000000000000332100000002464200000000000000000000000000000290600000003321000000000000000000660500000000345202221                                                                                                                             
02HUAK810530MGTRGR01HUAK810530QG300848594HURTADO                                           AGUADO                                            KARIMA ALEXANDRA                                  075542022081620220816202212311 01505313600000000743900000000000000000098300000000000000000024575000000324130000000000000000000000000000531360000003942700000000000000000000000000000464900000005314000000000000000001056900000000553202221                                                                                                                             
02CEJR870929MMCDMS07CEJR8709292I601609075CEDILLO                                           JIMENEZ                                           ROSAURA                                           075542022070120220701202212151 01503186000000000446000000000000000000058940000000000000000014735000000194350000000000000000000000000000318600000002364000000000000000000000000000000278800000003186000000000000000000633700000000331202221                                                                                                                             
02LAXS551019MNERXB05LAMS551019HP500286553LAURAIN                                                                                             SABINA JEANNE                                     075542022081620220816202212311 01505183300000000725700000000000000000095890000000000000000023973000000316180000000000000000000000000000518330000003846000000000000000000000000000000453500000005183000000000000000001031000000000539202221                                                                                                                             
02POAF970221HJCNGR00POAF9702215Y901617548PONCE                                             AGUIRRE                                           FERNANDO                                          075302022070120220701202212151 01504425000000000619500000000000000000081860000000000000000020466000000269930000000000000000000000000000442500000003283400000000000000000000000000000387200000004425000000000000000000880100000000460202221                                                                                                                             
02PIVJ841127HDFCZN09PIVJ841127U8401561679PICHARDO                                          VAZQUEZ                                           JEAN ANGELUS                                      075302022081620220816202212311 01504573500000000640300000000000000000084610000000000000000021152000000278980000000000000000000000000000457350000003393500000000000000000000000000000400200000004574000000000000000000909700000000476202221                                                                                                                             
02CABD370620MDFRCL06CABD3706202J401099673CAREAGA                                           Y BECERRA                                         MARIA DELFINA ELISA                               075542022070120220701202212151 01508938500000001251400000000000000000165360000000000000000041341000000545250000000000000000000000000000893850000006632400000000000000000000000000000782100000008939000000000000000001777900000000930202221                                                                                                                             
02RARA790802MDFNDN04RARA790802UXA01163214RANGEL                                            RODRIGUEZ                                         ANGELICA PATRICIA                                 075542022070120220701202212151 01502629060000000368100000000000000000048640000000000000000012159000000160370000000000000000000000000000262910000001950800000000000000000000000000000230000000002629000000000000000000522900000000273202221                                                                                                                             
02BEAA971216HMCCVN00BEAA971216J3101617524BECERRA                                           AVILES                                            ANTONIO DE JESUS                                  075302022070120220701202212151 01502629060000000368100000000000000000048640000000000000000012159000000160370000000000000000000000000000262910000001950800000000000000000000000000000230000000002629000000000000000000522900000000273202221                                                                                                                             
02ROPD880604MMNSRL04ROPD880604QA601620176ROSAS                                             PEREZ                                             DULCE MARIA                                       075302022080120220801202212311 01507622500000001067200000000000000000141020000000000000000035254000000464970000000000000000000000000000762250000005655900000000000000000000000000000667000000007623000000000000000001516100000000793202221                                                                                                                             
02AOVV820907HDFLVL00AOVV82090721701563867ALFONSECA                                         VIVAR                                             VLADIMIR                                          075302022081620220816202212311 01511586200000001622100000000000000000214340000000000000000053586000000706760000000000000000000000000001158620000008597000000000000000000000000000001013800000011586000000000000000002304500000001205202221                                                                                                                             
02FEGY991005MMCRNH06FEGY991005V7901621654FERNANDEZ                                         GONZALEZ                                          YAHRE                                             075302022081620220816202212311 01502656800000000372000000000000000000049150000000000000000012288000000162060000000000000000000000000000265680000001971300000000000000000000000000000232500000002657000000000000000000528400000000276202221                                                                                                                             
02ZAFV830301MDFRLN09ZAFV830301MN601280439ZARAZUA                                           FLORES                                            VIANCA HORTENCIA                                  075302022070120220701202212151 01502629060000000368100000000000000000048640000000000000000012159000000160370000000000000000000000000000262910000001950800000000000000000000000000000230000000002629000000000000000000522900000000273202221                                                                                                                             
02AEOM670309HOCSLN02AEOM670309FQ001588538ASENCIO                                           OLIVERA                                           MINERVO                                           075302022070120220701202212151 01505221500000000731000000000000000000096600000000000000000024149000000318510000000000000000000000000000522150000003874400000000000000000000000000000456900000005222000000000000000001038600000000543202221                                                                                                                             
02VAQR881028HMCZZB03VAQR8810286X201575125VAZQUEZ                                           QUEZADA                                           ROBERTO ADRIAN                                    075542022070120220701202212151 01505841000000000817700000000000000000108060000000000000000027015000000356300000000000000000000000000000584100000004334000000000000000000000000000000511100000005841000000000000000001161800000000607202221                                                                                                                             
02RUIA840326HDFZLM03RUIA840326L1A01162903RUIZ                                              ILLESCAS                                          AMIN ABDEL                                        075542022070120220701202212151 01502629060000000368100000000000000000048640000000000000000012159000000160370000000000000000000000000000262910000001950800000000000000000000000000000230000000002629000000000000000000522900000000273202221                                                                                                                             
02ZEEA821219HDFNSL06ZEEA8212195W300668977ZENDEJAS                                          ESTRADA                                           JOSE ALFREDO EMMANUEL                             075542022081620220816202212311 01506289300000000880500000000000000000116350000000000000000029088000000383650000000000000000000000000000628930000004666700000000000000000000000000000550300000006289000000000000000001250900000000654202221                                                                                                                             
02AERA010313MMCCCNA2AERA0103139P801584631ACEVEDO                                           RECILLAS                                          ANEL JAQUELINE                                    075302022070120220701202212151 01503009000000000421300000000000000000055670000000000000000013917000000183550000000000000000000000000000300900000002232700000000000000000000000000000263300000003009000000000000000000598500000000313202221                                                                                                                             
02CAGC740318HMCSZS05CAGC7403189C800573975CASTILLO                                          GUZMAN                                            CESAR                                             075542022070120220701202212150 01502655000000000000000000000000000000000000000000000000000012279000000161960000000000000000000000000000265500000001970000000000000000000000000000000232300000002655000000000000000000528100000000276202221                                                                                                                             
02MEGA910618HMCNSL07MEGA91061855701612109MENDOZA                                           GASCA                                             ALEJANDRO                                         075302022041820220418202207151 01502629060000000368100000000000000000048640000000000000000012159000000160370000000000000000000000000000262910000001950800000000000000000000000000000230000000002629000000000000000000522900000000273202221                                                                                                                             
02LOVR840807HMCPSB09LOVR8408076P801017666LOPEZ                                             VASQUEZ                                           JOSE ROBERTO                                      075542022081620220816202212311 01506098000000000853700000000000000000112810000000000000000028203000000371980000000000000000000000000000609800000004524700000000000000000000000000000533600000006098000000000000000001212900000000634202221                                                                                                                             
02BEMG950227HMCRCN07BEMG950227GM301549769BERMUDEZ                                          MUCIÑO                                            GONZALO                                           075302022081620220816202212131 01502629060000000368100000000000000000048640000000000000000012159000000160370000000000000000000000000000262910000001950800000000000000000000000000000230000000002629000000000000000000522900000000273202221                                                                                                                             
02AAEA930617MMCLSN00AAEA9306171I901584712ALCANTARA                                         ESCOBAR                                           ANA KAREN                                         075302021070120210701202112311 01512196000000001707400000000000000000225630000000000000000056407000000743960000000000000000000000000001219600000009049400000000000000000000000000001067200000012196000000000000000002425800000001268202221                                                                                                                             
02GIRL940618MDFJNR09GIRL940618MR401244206GIJON                                             RANGEL                                            LOURDES RAQUEL                                    075302022070120220701202212151 01502629060000000368100000000000000000048640000000000000000012159000000160370000000000000000000000000000262910000001950800000000000000000000000000000230000000002629000000000000000000522900000000273202221                                                                                                                             
02SAEV971215MMCNSL02SAEV971215CB001617558SANCHEZ                                           ESCALONA                                          VALERIA                                           075302022070120220701202212151 01503628500000000508000000000000000000067130000000000000000016782000000221340000000000000000000000000000362850000002692300000000000000000000000000000317500000003629000000000000000000721700000000377202221                                                                                                                             
02MUVF030226MMCCLTA9MUVF030226SP601622828MUCIÑO                                            VALLEJO                                           FATIMA                                            075302022090120220901202212311 01505793100000000811000000000000000000107170000000000000000026793000000353380000000000000000000000000000579310000004298500000000000000000000000000000506900000005793000000000000000001152200000000602202221                                                                                                                             
02BOHM800512HDFLRX04BOHM800512E8001330201BOULOUF                                           HERNANDEZ                                         MAX                                               075302022070120220701202212151 01506195000000000867300000000000000000114610000000000000000028652000000377900000000000000000000000000000619500000004596700000000000000000000000000000542100000006195000000000000000001232200000000644202221                                                                                                                             
02VECA760304HMCLRD01VECA760304HD701157635VELAZQUEZ                                         CORRAL                                            ADRIAN                                            075542022081620220816202212311 01503658800000000512200000000000000000067690000000000000000016922000000223190000000000000000000000000000365880000002714800000000000000000000000000000320100000003659000000000000000000727700000000381202221                                                                                                                             
02DOLJ721023HDFMDN09DOLJ7210232M800517008DOMINGUEZ                                         LEDESMA                                           JUAN FRANCISCO                                    075302022081620220816202212311 01508537200000001195200000000000000000157940000000000000000039485000000520770000000000000000000000000000853720000006334600000000000000000000000000000747000000008537000000000000000001698000000000888202221                                                                                                                             
02LEPN910412HDFNTS03LEPN910412JN201546581LEON                                              PETLECHE                                          NESTOR JOAN                                       075302022070120220701202212151 01502629060000000368100000000000000000048640000000000000000012159000000160370000000000000000000000000000262910000001950800000000000000000000000000000230000000002629000000000000000000522900000000273202221                                                                                                                             
02MESM990901MMCNHR02MESM990901R5001593789MENDOZA                                           SHATE                                             MARTHA SOFIA                                      075302022070120220701202207151 01506018000000000842500000000000000000111330000000000000000027833000000367100000000000000000000000000000601800000004465400000000000000000000000000000526600000006018000000000000000001197000000000626202221                                                                                                                             
02AUQM810528MMCGNT05AUQM810528HJ501570552AGUIRRE                                           QUINCELA                                          MITZI YENITZA                                     075302022070120220701202212151 01504425000000000619500000000000000000081860000000000000000020466000000269930000000000000000000000000000442500000003283400000000000000000000000000000387200000004425000000000000000000880100000000460202221                                                                                                                             
02GUMA720726MMCTNN05GUMA720726DS301573744GUTIERREZ                                         MONDRAGON                                         ANA LILIA                                         075302022070120220701202212151 01509823500000001375300000000000000000181730000000000000000045434000000599230000000000000000000000000000982350000007289000000000000000000000000000000859600000009824000000000000000001953900000001022202221                                                                                                                             
02CARC930430HDFRVR08CARC930430RA501285500CARPIZO                                           RIVERO                                            CARLOS ANDRES                                     075302022081620220816202212311 01506098000000000853700000000000000000112810000000000000000028203000000371980000000000000000000000000000609800000004524700000000000000000000000000000533600000006098000000000000000001212900000000634202221                                                                                                                             
02GUCM930105MMCRLR02GUCM930105TF501591133GUERRERO                                          COLIN                                             MARGARITA                                         075302021101620211016202112311 01502629060000000368100000000000000000048640000000000000000012159000000160370000000000000000000000000000262910000001950800000000000000000000000000000230000000002629000000000000000000522900000000273202221                                                                                                                             
02TECJ820807HMCRMS09TECJ820807B8701573775TREVIÑO                                           CAMACHO                                           JESUS ARMANDO                                     075302022070120220701202212151 01508584500000001201800000000000000000158810000000000000000039703000000523650000000000000000000000000000858450000006369700000000000000000000000000000751100000008585000000000000000001707500000000893202221                                                                                                                             
02LORJ850910HDFPSN06LORJ850910L5501191198LOPEZ                                             RESENDIZ                                          JUAN CARLOS                                       075302022070120220701202212151 01504248000000000594700000000000000000078590000000000000000019647000000259130000000000000000000000000000424800000003152000000000000000000000000000000371700000004248000000000000000000844900000000442202221                                                                                                                             
02SARF000228MMCLVRA2SARF000228CG101563866SALGADO                                           RIVERA                                            MARIA FERNANDA                                    075302022070120220701202212151 01510000500000001400100000000000000000185010000000000000000046252000000610030000000000000000000000000001000050000007420400000000000000000000000000000875000000010001000000000000000001989100000001040202221                                                                                                                             
02BAQJ900220HMCLXN05BAQJ900220QZ601561674BALCAZAR                                          QUIÑONES                                          JUAN ANTONIO                                      075302022081620220816202212311 01504099700000000574000000000000000000075840000000000000000018961000000250080000000000000000000000000000409970000003042000000000000000000000000000000358700000004100000000000000000000815400000000426202221                                                                                                                             
02ZAXM770207HNENXR08ZAMA7702072V701270949ZANATTA                                                                                             MAURO                                             075302022081620220816202212311 01503985200000000557900000000000000000073730000000000000000018432000000243100000000000000000000000000000398520000002957000000000000000000000000000000348700000003985000000000000000000792700000000414202221                                                                                                                             
02FEGJ881001HMCLRR01FEGJ881001RS501017660FELIX                                             GARCIA                                            JORGE LUIS                                        075542022081620220816202212311 01504977000000000696800000000000000000092070000000000000000023019000000303600000000000000000000000000000497700000003692900000000000000000000000000000435500000004977000000000000000000989900000000518202221                                                                                                                             
02TACA840613HMCPNN08TACA840613C5101264378TAPIA                                             CONTRERAS                                         ANTONIO GUADALUPE                                 075302022070120220701202212151 01502629060000000368100000000000000000048640000000000000000012159000000160370000000000000000000000000000262910000001950800000000000000000000000000000230000000002629000000000000000000522900000000273202221                                                                                                                             
02GARB780801MMCRDL03GARB78080183200620976GARDUÑO                                           RODRIGUEZ                                         BLANCA ANGELICA                                   075542022081620220816202212311 01507622500000001067200000000000000000141020000000000000000035254000000464970000000000000000000000000000762250000005655900000000000000000000000000000667000000007623000000000000000001516100000000793202221                                                                                                                             
02CAZP740516MMCMMT09CAZP740516GY601609141CAMACHO                                           ZAMORA                                            PATRICIA                                          075302022031620220316202207151 01507622500000001067200000000000000000141020000000000000000035254000000464970000000000000000000000000000762250000005655900000000000000000000000000000667000000007623000000000000000001516100000000793202221                                                                                                                             
02CIVE631216HDFSTL00CIVE631216CB801162901CISNEROS                                          VITE                                              ELIAS                                             075542022070120220701202212151 01502629060000000368100000000000000000048640000000000000000012159000000160370000000000000000000000000000262910000001950800000000000000000000000000000230000000002629000000000000000000522900000000273202221                                                                                                                             
02MEDL920214MMCDLR08MEDL920214MR801617544MEDEL                                             DELGADO                                           LAURA VALENTINA                                   075302022070120220701202212151 01502629060000000368100000000000000000048640000000000000000012159000000160370000000000000000000000000000262910000001950800000000000000000000000000000230000000002629000000000000000000522900000000273202221                                                                                                                             
02PERE921102HDFRMR04PERE921102UK501184136PEREZ                                             ROMERO                                            ERIK JAVIER                                       075302022070120220701202212151 01502629060000000368100000000000000000048640000000000000000012159000000160370000000000000000000000000000262910000001950800000000000000000000000000000230000000002629000000000000000000522900000000273202221                                                                                                                             
02LOMM590303HMNPNG00LOMM59030315400080123LOPEZ                                             MONTUFAR                                          MIGUEL                                            075302022070120220701202212151 01507965000000001115100000000000000000147350000000000000000036838000000485870000000000000000000000000000796500000005910000000000000000000000000000000696900000007965000000000000000001584200000000828202221                                                                                                                             
02ROIM790728HMCSTR08ROIM7907288C400807178ROSALES                                           ITURBIDE                                          MARCO ANTONIO                                     075542022081620220816202212311 01503871000000000541900000000000000000071610000000000000000017903000000236130000000000000000000000000000387100000002872300000000000000000000000000000338700000003871000000000000000000769900000000403202221                                                                                                                             
02TUMO900523HMCRRC08TUMO900523JB801502013TRUJANO                                           MARTINEZ                                          OCTAVIO                                           075302022070120220701202212151 01502655000000000371700000000000000000049120000000000000000012279000000161960000000000000000000000000000265500000001970000000000000000000000000000000232300000002655000000000000000000528100000000276202221                                                                                                                             
02VITE920813HMCLRD03VITE920813TBA01118703VILLALOBOS                                        TRUEBA                                            EDUARDO                                           075542022081620220816202212311 01503594500000000503200000000000000000066500000000000000000016625000000219260000000000000000000000000000359450000002667100000000000000000000000000000314500000003595000000000000000000714900000000374202221                                                                                                                             
02FEAI940328HMCRGS06FEAI940328HDA01622820FERNANDEZ                                         AGUILAR                                           ISMAEL ANTONIO                                    075302022090120220901202212311 01502765000000000387100000000000000000051150000000000000000012788000000168670000000000000000000000000000276500000002051600000000000000000000000000000241900000002765000000000000000000550000000000288202221                                                                                                                             
02AAXA630820HNEGXR04AAAR6308208S000659038AGHABEKYAN                                                                                          ARMEN                                             075542022081620220816202212311 01505183300000000725700000000000000000095890000000000000000023973000000316180000000000000000000000000000518330000003846000000000000000000000000000000453500000005183000000000000000001031000000000539202221                                                                                                                             
02ROGG930509MMCDRD06ROGG930509QJ801617557RODRIGUEZ                                         GARCIA                                            GUADALUPE                                         075302022070120220701202212151 01502629060000000368100000000000000000048640000000000000000012159000000160370000000000000000000000000000262910000001950800000000000000000000000000000230000000002629000000000000000000522900000000273202221                                                                                                                             
02PEJK880603MMCRMR07PEJK88060364801549785PEREZ                                             JAIMES                                            KAREN GABRIELA                                    075302022081620220816202212311 01504573500000000640300000000000000000084610000000000000000021152000000278980000000000000000000000000000457350000003393500000000000000000000000000000400200000004574000000000000000000909700000000476202221                                                                                                                             
02DIMR820403HOCZNC08DIMR820403P5301315832DIAZ                                              MENDEZ                                            RICARDO FAUSTINO                                  075302022081620220816202212311 01512196000000001707400000000000000000225630000000000000000056407000000743960000000000000000000000000001219600000009049400000000000000000000000000001067200000012196000000000000000002425800000001268202221                                                                                                                             
02TORA890409MMCRMN04TORA8904095M301502008TORRES                                            RAMOS                                             ANAHI                                             075302022070120220701202212151 01502629060000000368100000000000000000048640000000000000000012159000000160370000000000000000000000000000262910000001950800000000000000000000000000000230000000002629000000000000000000522900000000273202221                                                                                                                             
02GOSL720507MMCMGT00GOSL720507F5301570559GOMEZ                                             SEGURA                                            LETICIA                                           075302022070120220701202212151 01504425000000000619500000000000000000081860000000000000000020466000000269930000000000000000000000000000442500000003283400000000000000000000000000000387200000004425000000000000000000880100000000460202221                                                                                                                             
02ROQI720101MDFJNR07ROQI720101BY901162395ROJAS                                             QUINTERO                                          IRMA VIOLETA                                      075542022070120220701202212151 01502629060000000368100000000000000000048640000000000000000012159000000160370000000000000000000000000000262910000001950800000000000000000000000000000230000000002629000000000000000000522900000000273202221                                                                                                                             
02EACG860822HMCSSR03EACG86082243500891274ESTRADA                                           CASTAÑEDA                                         GERARDO                                           075542015070120180703201812151 01502629060000000368100000000000000000048640000000000000000012159000000160370000000000000000000000000000262910000001950800000000000000000000000000000230000000002629000000000000000000522900000000273202221                                                                                                                             
02TEMA830103HMCRLB02TEMA830103QG600546072TREJO                                             MOLINA                                            ABRAHAM                                           075302022080120220801202212310 01522582800000000000000000000000000000000000000000000000000104445000001377550000000000000000000000000002258280000016756400000000000000000000000000001976000000022583000000000000000004491700000002349202221                                                                                                                             
02BAPA900720HDFRXL07BAPA900720B4201257516BARAJAS                                           PEÑA                                              ALAN CHRISTIAN                                    075302022070120220701202212151 01502629060000000368100000000000000000048640000000000000000012159000000160370000000000000000000000000000262910000001950800000000000000000000000000000230000000002629000000000000000000522900000000273202221                                                                                                                             
02GOGL670216HDFNRP03GOGL670216F8500502594GONZALEZ                                          GARCIA                                            LEOPOLDO                                          075302022081620220816202212311 01502988900000000418400000000000000000055290000000000000000013824000000182320000000000000000000000000000298890000002217800000000000000000000000000000261500000002989000000000000000000594500000000311202221                                                                                                                             
02OICG891107HOCRHL03OICG891107GI901624250ORTIZ                                             CHAVEZ                                            GIL                                               075302022091620220916202212311 01504981500000000697400000000000000000092160000000000000000023039000000303870000000000000000000000000000498150000003696300000000000000000000000000000435900000004982000000000000000000990800000000518202221                                                                                                                             
02HEFA881004HDFRRL00HEFA881004BU501529413HERNANDEZ                                         FERNANDEZ                                         ALAN BRAULIO                                      075542022081620220816202212311 01503653100000000511400000000000000000067580000000000000000016896000000222840000000000000000000000000000365310000002710600000000000000000000000000000319600000003653000000000000000000726600000000380202221                                                                                                                             
02MOFE661108HMCRRR04MOFE661108IAA00620218MORALES                                           FERNANDEZ                                         ERNESTO                                           075542015070100010101000101011 01504025000000000563500000000000000000074460000000000000000018616000000245530000000000000000000000000000402500000002986600000000000000000000000000000352200000004025000000000000000000800600000000419202221                                                                                                                             
02SOPL750425HDFPLS02SOPL750425P1901559828SOPELANA                                          PALOMINO                                          LUIS EDUARDO                                      075302022070120220701202212151 01502629060000000368100000000000000000048640000000000000000012159000000160370000000000000000000000000000262910000001950800000000000000000000000000000230000000002629000000000000000000522900000000273202221                                                                                                                             
02VAPD760105HDFZRN03VAPD7601058H800548159VAZQUEZ                                           PEREZ                                             DANIEL                                            075542022081620220816202212311 01507927400000001109800000000000000000146660000000000000000036664000000483570000000000000000000000000000792740000005882100000000000000000000000000000693600000007927000000000000000001576800000000824202221                                                                                                                             
02MIOL970321HMCSRS08MIOL97032165401570565MISULINICH                                        OREA                                              LUIS ERNESTO                                      075302022070120220701202212151 01507611000000001065500000000000000000140800000000000000000035201000000464270000000000000000000000000000761100000005647400000000000000000000000000000666000000007611000000000000000001513800000000792202221                                                                                                                             
02GAMM631218MDFLNR03GAMM631218BW000929842GALICIA                                           MONTES                                            MERCEDES                                          075302022070120220701202212151 01502629060000000368100000000000000000048640000000000000000012159000000160370000000000000000000000000000262910000001950800000000000000000000000000000230000000002629000000000000000000522900000000273202221                                                                                                                             
02CEBG791030MDFDND00CEBG791030QG500676681CEDILLO                                           BENITEZ                                           MARIA GUADALUPE                                   075302022070120220701202212151 01502629060000000368100000000000000000048640000000000000000012159000000160370000000000000000000000000000262910000001950800000000000000000000000000000230000000002629000000000000000000522900000000273202221                                                                                                                             
02GAGP690905HDFLND08GAGP690905I2100704028GALINDO                                           GONZALEZ                                          PEDRO IGNACIO                                     075542022081620220816202212311 01503049000000000426900000000000000000056410000000000000000014102000000185990000000000000000000000000000304900000002262400000000000000000000000000000266800000003049000000000000000000606400000000317202221                                                                                                                             
02LONG530209HMCPVL04LONG530209A4301014276LOPEZ                                             NAVA                                              GUILLERMO ALEJO                                   075542022081620220816202212311 01505488200000000768300000000000000000101530000000000000000025383000000334780000000000000000000000000000548820000004072200000000000000000000000000000480200000005488000000000000000001091600000000571202221                                                                                                                             
02AEJD830729HNENCR06AEJD830729NCA00620903ANDERSON                                          JACAMO                                            DARYL RODWELL                                     075542022081620220816202212311 01505183300000000725700000000000000000095890000000000000000023973000000316180000000000000000000000000000518330000003846000000000000000000000000000000453500000005183000000000000000001031000000000539202221                                                                                                                             
02VACM640522HDFRRR00VACM6405227M201162481VARGAS                                            CRUZ                                              MARIO                                             075542022070120220701202212151 01502629060000000368100000000000000000048640000000000000000012159000000160370000000000000000000000000000262910000001950800000000000000000000000000000230000000002629000000000000000000522900000000273202221                                                                                                                             
02SOMN941018MMCRNL07SOMN9410187V601617560SORIANO                                           MENA                                              NALLELY DENISSE                                   075302022070120220701202212151 01502629060000000368100000000000000000048640000000000000000012159000000160370000000000000000000000000000262910000001950800000000000000000000000000000230000000002629000000000000000000522900000000273202221                                                                                                                             
02GOBR960511MMCNNT04GOBR9605116T001546571GONZALEZ                                          BONILLA                                           RUTH                                              075302022070120220701202212151 01507611000000001065500000000000000000140800000000000000000035201000000464270000000000000000000000000000761100000005647400000000000000000000000000000666000000007611000000000000000001513800000000792202221                                                                                                                             
02DURC650413MDFRBR06DURC650413UY901584634DURAN                                             ROBLES                                            CRISTINA ANA                                      075302022070120220701202212151 01502629060000000368100000000000000000048640000000000000000012159000000160370000000000000000000000000000262910000001950800000000000000000000000000000230000000002629000000000000000000522900000000273202221                                                                                                                             
02BAPD610521HNERNW16BAPD610521SJ300286580BRYAN                                             PENNINGTON                                        DWIGHT LLOYD                                      075542022081620220816202212310 01505183300000000000000000000000000000000000000000000000000023973000000316180000000000000000000000000000518330000003846000000000000000000000000000000453500000005183000000000000000001031000000000539202221                                                                                                                             
02OOKP690904MDFRRT00OOKP690904UW300466642OROPEZA                                           KERESEY                                           PATRICIA LORENA                                   075542022081620220816202212311 01503321000000000464900000000000000000061440000000000000000015360000000202580000000000000000000000000000332100000002464200000000000000000000000000000290600000003321000000000000000000660500000000345202221                                                                                                                             
02CACE750516MDFMRL08CACE750516D8501617526CAMACHO                                           CORONEL                                           ELBA ELIZABETH                                    075302022070120220701202212151 01503009000000000421300000000000000000055670000000000000000013917000000183550000000000000000000000000000300900000002232700000000000000000000000000000263300000003009000000000000000000598500000000313202221                                                                                                                             
02ROAR931101HMCDBS06ROAR9311019Z101283032RODRIGUEZ                                         ABASCAL                                           RUSSELL                                           075302022081620220816202212311 01506974100000000976400000000000000000129020000000000000000032255000000425420000000000000000000000000000697410000005174800000000000000000000000000000610200000006974000000000000000001387100000000725202221                                                                                                                             
02ZABR750101HMCRRF04ZABR750101QY100779272ZARATE                                            BERNAL                                            RAFAEL                                            075542022081620220816202212311 01505183300000000725700000000000000000095890000000000000000023973000000316180000000000000000000000000000518330000003846000000000000000000000000000000453500000005183000000000000000001031000000000539202221                                                                                                                             
02AEGJ660815HMCNNN08AEGJ660815AG101162834ANCELMO                                           GONZALEZ                                          JUAN                                              075542022070120220701202212151 01502629060000000368100000000000000000048640000000000000000012159000000160370000000000000000000000000000262910000001950800000000000000000000000000000230000000002629000000000000000000522900000000273202221                                                                                                                             
02SAMS601008MMCNRR00SAMS60100894900167783SANCHEZ                                           MERCADO                                           SARA GRISELDA                                     075302022081620220816202212310 01502629060000000000000000000000000000000000000000000000000012159000000160370000000000000000000000000000262910000001950800000000000000000000000000000230000000002629000000000000000000522900000000273202221                                                                                                                             
